{
  "address": "0x56d198137662E07E9c786BE6F2A60fB4E746fEBE",
  "abi": [
    {
      "inputs": [],
      "stateMutability": "nonpayable",
      "type": "constructor"
    },
    {
      "inputs": [],
      "name": "aggregator",
      "outputs": [
        {
          "internalType": "address",
          "name": "",
          "type": "address"
        }
      ],
      "stateMutability": "view",
      "type": "function"
    },
    {
      "inputs": [],
      "name": "answer",
      "outputs": [
        {
          "internalType": "int256",
          "name": "",
          "type": "int256"
        }
      ],
      "stateMutability": "view",
      "type": "function"
    },
    {
      "inputs": [
        {
          "internalType": "uint80",
          "name": "",
          "type": "uint80"
        }
      ],
      "name": "answers",
      "outputs": [
        {
          "internalType": "int256",
          "name": "",
          "type": "int256"
        }
      ],
      "stateMutability": "view",
      "type": "function"
    },
    {
      "inputs": [],
      "name": "decimals",
      "outputs": [
        {
          "internalType": "uint256",
          "name": "",
          "type": "uint256"
        }
      ],
      "stateMutability": "view",
      "type": "function"
    },
    {
      "inputs": [],
      "name": "description",
      "outputs": [
        {
          "internalType": "string",
          "name": "",
          "type": "string"
        }
      ],
      "stateMutability": "view",
      "type": "function"
    },
    {
      "inputs": [
        {
          "internalType": "uint80",
          "name": "_roundId",
          "type": "uint80"
        }
      ],
      "name": "getRoundData",
      "outputs": [
        {
          "internalType": "uint80",
          "name": "",
          "type": "uint80"
        },
        {
          "internalType": "int256",
          "name": "",
          "type": "int256"
        },
        {
          "internalType": "uint256",
          "name": "",
          "type": "uint256"
        },
        {
          "internalType": "uint256",
          "name": "",
          "type": "uint256"
        },
        {
          "internalType": "uint80",
          "name": "",
          "type": "uint80"
        }
      ],
      "stateMutability": "view",
      "type": "function"
    },
    {
      "inputs": [],
      "name": "gov",
      "outputs": [
        {
          "internalType": "address",
          "name": "",
          "type": "address"
        }
      ],
      "stateMutability": "view",
      "type": "function"
    },
    {
      "inputs": [
        {
          "internalType": "address",
          "name": "",
          "type": "address"
        }
      ],
      "name": "isAdmin",
      "outputs": [
        {
          "internalType": "bool",
          "name": "",
          "type": "bool"
        }
      ],
      "stateMutability": "view",
      "type": "function"
    },
    {
      "inputs": [],
      "name": "latestAnswer",
      "outputs": [
        {
          "internalType": "int256",
          "name": "",
          "type": "int256"
        }
      ],
      "stateMutability": "view",
      "type": "function"
    },
    {
      "inputs": [],
      "name": "latestRound",
      "outputs": [
        {
          "internalType": "uint80",
          "name": "",
          "type": "uint80"
        }
      ],
      "stateMutability": "view",
      "type": "function"
    },
    {
      "inputs": [],
      "name": "roundId",
      "outputs": [
        {
          "internalType": "uint80",
          "name": "",
          "type": "uint80"
        }
      ],
      "stateMutability": "view",
      "type": "function"
    },
    {
      "inputs": [
        {
          "internalType": "address",
          "name": "_account",
          "type": "address"
        },
        {
          "internalType": "bool",
          "name": "_isAdmin",
          "type": "bool"
        }
      ],
      "name": "setAdmin",
      "outputs": [],
      "stateMutability": "nonpayable",
      "type": "function"
    },
    {
      "inputs": [
        {
          "internalType": "int256",
          "name": "_answer",
          "type": "int256"
        }
      ],
      "name": "setLatestAnswer",
      "outputs": [],
      "stateMutability": "nonpayable",
      "type": "function"
    }
  ],
  "transactionHash": "0xd615d93178d9668c4ceba5a7c4615e06d7a4217833214f4b8f81462af2a5a997",
  "args": [],
  "numDeployments": 1,
  "solcInputHash": "56c069654fb841afd02cf6fba187d143",
  "bytecode": "0x60806040526040518060400160405280600981526020017f5072696365466565640000000000000000000000000000000000000000000000815250600290816200004a919062000372565b503480156200005857600080fd5b5033600560006101000a81548173ffffffffffffffffffffffffffffffffffffffff021916908373ffffffffffffffffffffffffffffffffffffffff1602179055506001600760003373ffffffffffffffffffffffffffffffffffffffff1673ffffffffffffffffffffffffffffffffffffffff16815260200190815260200160002060006101000a81548160ff02191690831515021790555062000459565b600081519050919050565b7f4e487b7100000000000000000000000000000000000000000000000000000000600052604160045260246000fd5b7f4e487b7100000000000000000000000000000000000000000000000000000000600052602260045260246000fd5b600060028204905060018216806200017a57607f821691505b60208210810362000190576200018f62000132565b5b50919050565b60008190508160005260206000209050919050565b60006020601f8301049050919050565b600082821b905092915050565b600060088302620001fa7fffffffffffffffffffffffffffffffffffffffffffffffffffffffffffffffff82620001bb565b620002068683620001bb565b95508019841693508086168417925050509392505050565b6000819050919050565b6000819050919050565b6000620002536200024d62000247846200021e565b62000228565b6200021e565b9050919050565b6000819050919050565b6200026f8362000232565b620002876200027e826200025a565b848454620001c8565b825550505050565b600090565b6200029e6200028f565b620002ab81848462000264565b505050565b5b81811015620002d357620002c760008262000294565b600181019050620002b1565b5050565b601f8211156200032257620002ec8162000196565b620002f784620001ab565b8101602085101562000307578190505b6200031f6200031685620001ab565b830182620002b0565b50505b505050565b600082821c905092915050565b6000620003476000198460080262000327565b1980831691505092915050565b600062000362838362000334565b9150826002028217905092915050565b6200037d82620000f8565b67ffffffffffffffff81111562000399576200039862000103565b5b620003a5825462000161565b620003b2828285620002d7565b600060209050601f831160018114620003ea5760008415620003d5578287015190505b620003e1858262000354565b86555062000451565b601f198416620003fa8662000196565b60005b828110156200042457848901518255600182019150602085019450602081019050620003fd565b8683101562000444578489015162000440601f89168262000334565b8355505b6001600288020188555050505b505050505050565b610b8380620004696000396000f3fe608060405234801561001057600080fd5b50600436106100cf5760003560e01c80634c295ca31161008c5780637284e416116100665780637284e4161461020257806385bb7d69146102205780638cd221c91461023e5780639a6fc8f51461025c576100cf565b80634c295ca31461019657806350d25bcd146101c6578063668a0f02146101e4576100cf565b806304ea97b0146100d457806312d43a51146100f0578063245a7bfc1461010e57806324d7806c1461012c578063313ce5671461015c5780634b0bddd21461017a575b600080fd5b6100ee60048036038101906100e99190610694565b610290565b005b6100f86103be565b6040516101059190610702565b60405180910390f35b6101166103e4565b6040516101239190610702565b60405180910390f35b61014660048036038101906101419190610749565b61040a565b6040516101539190610791565b60405180910390f35b61016461042a565b60405161017191906107c5565b60405180910390f35b610194600480360381019061018f919061080c565b610430565b005b6101b060048036038101906101ab919061088e565b61051b565b6040516101bd91906108ca565b60405180910390f35b6101ce610533565b6040516101db91906108ca565b60405180910390f35b6101ec61053c565b6040516101f991906108f4565b60405180910390f35b61020a61055c565b604051610217919061099f565b60405180910390f35b6102286105ea565b60405161023591906108ca565b60405180910390f35b6102466105f0565b60405161025391906108f4565b60405180910390f35b6102766004803603810190610271919061088e565b61060c565b6040516102879594939291906109c1565b60405180910390f35b600760003373ffffffffffffffffffffffffffffffffffffffff1673ffffffffffffffffffffffffffffffffffffffff16815260200190815260200160002060009054906101000a900460ff1661031c576040517f08c379a000000000000000000000000000000000000000000000000000000000815260040161031390610a60565b60405180910390fd5b60018060009054906101000a900469ffffffffffffffffffff166103409190610aaf565b600160006101000a81548169ffffffffffffffffffff021916908369ffffffffffffffffffff160217905550806000819055508060066000600160009054906101000a900469ffffffffffffffffffff1669ffffffffffffffffffff1669ffffffffffffffffffff1681526020019081526020016000208190555050565b600560009054906101000a900473ffffffffffffffffffffffffffffffffffffffff1681565b600360009054906101000a900473ffffffffffffffffffffffffffffffffffffffff1681565b60076020528060005260406000206000915054906101000a900460ff1681565b60045481565b600560009054906101000a900473ffffffffffffffffffffffffffffffffffffffff1673ffffffffffffffffffffffffffffffffffffffff163373ffffffffffffffffffffffffffffffffffffffff16146104c0576040517f08c379a00000000000000000000000000000000000000000000000000000000081526004016104b790610a60565b60405180910390fd5b80600760008473ffffffffffffffffffffffffffffffffffffffff1673ffffffffffffffffffffffffffffffffffffffff16815260200190815260200160002060006101000a81548160ff0219169083151502179055505050565b60066020528060005260406000206000915090505481565b60008054905090565b6000600160009054906101000a900469ffffffffffffffffffff16905090565b6002805461056990610b1c565b80601f016020809104026020016040519081016040528092919081815260200182805461059590610b1c565b80156105e25780601f106105b7576101008083540402835291602001916105e2565b820191906000526020600020905b8154815290600101906020018083116105c557829003601f168201915b505050505081565b60005481565b600160009054906101000a900469ffffffffffffffffffff1681565b600080600080600085600660008869ffffffffffffffffffff1669ffffffffffffffffffff1681526020019081526020016000205460008060009450945094509450945091939590929450565b600080fd5b6000819050919050565b6106718161065e565b811461067c57600080fd5b50565b60008135905061068e81610668565b92915050565b6000602082840312156106aa576106a9610659565b5b60006106b88482850161067f565b91505092915050565b600073ffffffffffffffffffffffffffffffffffffffff82169050919050565b60006106ec826106c1565b9050919050565b6106fc816106e1565b82525050565b600060208201905061071760008301846106f3565b92915050565b610726816106e1565b811461073157600080fd5b50565b6000813590506107438161071d565b92915050565b60006020828403121561075f5761075e610659565b5b600061076d84828501610734565b91505092915050565b60008115159050919050565b61078b81610776565b82525050565b60006020820190506107a66000830184610782565b92915050565b6000819050919050565b6107bf816107ac565b82525050565b60006020820190506107da60008301846107b6565b92915050565b6107e981610776565b81146107f457600080fd5b50565b600081359050610806816107e0565b92915050565b6000806040838503121561082357610822610659565b5b600061083185828601610734565b9250506020610842858286016107f7565b9150509250929050565b600069ffffffffffffffffffff82169050919050565b61086b8161084c565b811461087657600080fd5b50565b60008135905061088881610862565b92915050565b6000602082840312156108a4576108a3610659565b5b60006108b284828501610879565b91505092915050565b6108c48161065e565b82525050565b60006020820190506108df60008301846108bb565b92915050565b6108ee8161084c565b82525050565b600060208201905061090960008301846108e5565b92915050565b600081519050919050565b600082825260208201905092915050565b60005b8381101561094957808201518184015260208101905061092e565b60008484015250505050565b6000601f19601f8301169050919050565b60006109718261090f565b61097b818561091a565b935061098b81856020860161092b565b61099481610955565b840191505092915050565b600060208201905081810360008301526109b98184610966565b905092915050565b600060a0820190506109d660008301886108e5565b6109e360208301876108bb565b6109f060408301866107b6565b6109fd60608301856107b6565b610a0a60808301846108e5565b9695505050505050565b7f5072696365466565643a20666f7262696464656e000000000000000000000000600082015250565b6000610a4a60148361091a565b9150610a5582610a14565b602082019050919050565b60006020820190508181036000830152610a7981610a3d565b9050919050565b7f4e487b7100000000000000000000000000000000000000000000000000000000600052601160045260246000fd5b6000610aba8261084c565b9150610ac58361084c565b9250828201905069ffffffffffffffffffff811115610ae757610ae6610a80565b5b92915050565b7f4e487b7100000000000000000000000000000000000000000000000000000000600052602260045260246000fd5b60006002820490506001821680610b3457607f821691505b602082108103610b4757610b46610aed565b5b5091905056fea26469706673582212206b89da79f8dd69d29bc75ee0f967f4b526793dd04c4c0756b5bb73048a4b051364736f6c63430008110033",
  "devdoc": {
    "kind": "dev",
    "methods": {},
    "version": 1
  },
  "userdoc": {
    "kind": "user",
    "methods": {},
    "version": 1
  },
  "storageLayout": {
    "storage": [
      {
        "astId": 2672,
        "contract": "contracts/oracle/UnitPriceFeed.sol:UnitPriceFeed",
        "label": "answer",
        "offset": 0,
        "slot": "0",
        "type": "t_int256"
      },
      {
        "astId": 2674,
        "contract": "contracts/oracle/UnitPriceFeed.sol:UnitPriceFeed",
        "label": "roundId",
        "offset": 0,
        "slot": "1",
        "type": "t_uint80"
      },
      {
        "astId": 2678,
        "contract": "contracts/oracle/UnitPriceFeed.sol:UnitPriceFeed",
        "label": "description",
        "offset": 0,
        "slot": "2",
        "type": "t_string_storage"
      },
      {
        "astId": 2681,
        "contract": "contracts/oracle/UnitPriceFeed.sol:UnitPriceFeed",
        "label": "aggregator",
        "offset": 0,
        "slot": "3",
        "type": "t_address"
      },
      {
        "astId": 2683,
        "contract": "contracts/oracle/UnitPriceFeed.sol:UnitPriceFeed",
        "label": "decimals",
        "offset": 0,
        "slot": "4",
        "type": "t_uint256"
      },
      {
        "astId": 2685,
        "contract": "contracts/oracle/UnitPriceFeed.sol:UnitPriceFeed",
        "label": "gov",
        "offset": 0,
        "slot": "5",
        "type": "t_address"
      },
      {
        "astId": 2689,
        "contract": "contracts/oracle/UnitPriceFeed.sol:UnitPriceFeed",
        "label": "answers",
        "offset": 0,
        "slot": "6",
        "type": "t_mapping(t_uint80,t_int256)"
      },
      {
        "astId": 2693,
        "contract": "contracts/oracle/UnitPriceFeed.sol:UnitPriceFeed",
        "label": "isAdmin",
        "offset": 0,
        "slot": "7",
        "type": "t_mapping(t_address,t_bool)"
      }
    ],
    "types": {
      "t_address": {
        "encoding": "inplace",
        "label": "address",
        "numberOfBytes": "20"
      },
      "t_bool": {
        "encoding": "inplace",
        "label": "bool",
        "numberOfBytes": "1"
      },
      "t_int256": {
        "encoding": "inplace",
        "label": "int256",
        "numberOfBytes": "32"
      },
      "t_mapping(t_address,t_bool)": {
        "encoding": "mapping",
        "key": "t_address",
        "label": "mapping(address => bool)",
        "numberOfBytes": "32",
        "value": "t_bool"
      },
      "t_mapping(t_uint80,t_int256)": {
        "encoding": "mapping",
        "key": "t_uint80",
        "label": "mapping(uint80 => int256)",
        "numberOfBytes": "32",
        "value": "t_int256"
      },
      "t_string_storage": {
        "encoding": "bytes",
        "label": "string",
        "numberOfBytes": "32"
      },
      "t_uint256": {
        "encoding": "inplace",
        "label": "uint256",
        "numberOfBytes": "32"
      },
      "t_uint80": {
        "encoding": "inplace",
        "label": "uint80",
        "numberOfBytes": "10"
      }
    }
  }
}