{
  "address": "0x4D8751FF46C9b47065053CFB6f08e9eBe3B3fF7b",
  "abi": [
    {
      "inputs": [
        {
          "internalType": "address",
          "name": "_tinu",
          "type": "address"
        }
      ],
      "stateMutability": "nonpayable",
      "type": "constructor"
    },
    {
      "anonymous": false,
      "inputs": [
        {
          "indexed": true,
          "internalType": "address",
          "name": "owner",
          "type": "address"
        },
        {
          "indexed": false,
          "internalType": "address",
          "name": "operator",
          "type": "address"
        },
        {
          "indexed": false,
          "internalType": "bool",
          "name": "allow",
          "type": "bool"
        }
      ],
      "name": "Approval",
      "type": "event"
    },
    {
      "anonymous": false,
      "inputs": [
        {
          "indexed": true,
          "internalType": "address",
          "name": "from",
          "type": "address"
        },
        {
          "indexed": true,
          "internalType": "address",
          "name": "to",
          "type": "address"
        },
        {
          "indexed": false,
          "internalType": "address",
          "name": "token",
          "type": "address"
        },
        {
          "indexed": false,
          "internalType": "uint256",
          "name": "tokenAssets",
          "type": "uint256"
        },
        {
          "indexed": false,
          "internalType": "uint256",
          "name": "unitDebt",
          "type": "uint256"
        }
      ],
      "name": "CollateralOwnerTrasnfer",
      "type": "event"
    },
    {
      "anonymous": false,
      "inputs": [
        {
          "indexed": true,
          "internalType": "address",
          "name": "receiver",
          "type": "address"
        },
        {
          "indexed": false,
          "internalType": "address",
          "name": "collateralToken",
          "type": "address"
        },
        {
          "indexed": false,
          "internalType": "uint256",
          "name": "collateralAmount",
          "type": "uint256"
        },
        {
          "indexed": false,
          "internalType": "uint256",
          "name": "liquidationPrice",
          "type": "uint256"
        }
      ],
      "name": "DecreaseCollateral",
      "type": "event"
    },
    {
      "anonymous": false,
      "inputs": [
        {
          "indexed": true,
          "internalType": "address",
          "name": "owner",
          "type": "address"
        },
        {
          "indexed": false,
          "internalType": "address",
          "name": "collateralToken",
          "type": "address"
        },
        {
          "indexed": false,
          "internalType": "uint256",
          "name": "amount",
          "type": "uint256"
        },
        {
          "indexed": false,
          "internalType": "uint256",
          "name": "liquidationPrice",
          "type": "uint256"
        }
      ],
      "name": "DecreaseDebt",
      "type": "event"
    },
    {
      "anonymous": false,
      "inputs": [
        {
          "indexed": true,
          "internalType": "address",
          "name": "receiver",
          "type": "address"
        },
        {
          "indexed": false,
          "internalType": "address",
          "name": "collateralToken",
          "type": "address"
        },
        {
          "indexed": false,
          "internalType": "uint256",
          "name": "amount",
          "type": "uint256"
        },
        {
          "indexed": false,
          "internalType": "uint256",
          "name": "liquidationPrice",
          "type": "uint256"
        }
      ],
      "name": "IncreaseCollateral",
      "type": "event"
    },
    {
      "anonymous": false,
      "inputs": [
        {
          "indexed": true,
          "internalType": "address",
          "name": "owner",
          "type": "address"
        },
        {
          "indexed": false,
          "internalType": "address",
          "name": "collateralToken",
          "type": "address"
        },
        {
          "indexed": false,
          "internalType": "uint256",
          "name": "amount",
          "type": "uint256"
        },
        {
          "indexed": false,
          "internalType": "uint256",
          "name": "liquidationPrice",
          "type": "uint256"
        }
      ],
      "name": "IncreaseDebt",
      "type": "event"
    },
    {
      "anonymous": false,
      "inputs": [
        {
          "indexed": true,
          "internalType": "address",
          "name": "owner",
          "type": "address"
        },
        {
          "indexed": false,
          "internalType": "address",
          "name": "collateralToken",
          "type": "address"
        },
        {
          "indexed": false,
          "internalType": "uint256",
          "name": "tokenAssets",
          "type": "uint256"
        },
        {
          "indexed": false,
          "internalType": "uint256",
          "name": "unitDebt",
          "type": "uint256"
        },
        {
          "indexed": false,
          "internalType": "address",
          "name": "feeTo",
          "type": "address"
        }
      ],
      "name": "LiquidateCollateral",
      "type": "event"
    },
    {
      "inputs": [
        {
          "internalType": "address",
          "name": "_account",
          "type": "address"
        },
        {
          "internalType": "address",
          "name": "_collateralToken",
          "type": "address"
        }
      ],
      "name": "_getLiquidationPrice",
      "outputs": [
        {
          "internalType": "uint256",
          "name": "",
          "type": "uint256"
        }
      ],
      "stateMutability": "view",
      "type": "function"
    },
    {
      "inputs": [
        {
          "internalType": "address",
          "name": "",
          "type": "address"
        },
        {
          "internalType": "address",
          "name": "",
          "type": "address"
        }
      ],
      "name": "allowances",
      "outputs": [
        {
          "internalType": "bool",
          "name": "",
          "type": "bool"
        }
      ],
      "stateMutability": "view",
      "type": "function"
    },
    {
      "inputs": [
        {
          "internalType": "address",
          "name": "_operator",
          "type": "address"
        },
        {
          "internalType": "bool",
          "name": "_allow",
          "type": "bool"
        }
      ],
      "name": "approve",
      "outputs": [],
      "stateMutability": "nonpayable",
      "type": "function"
    },
    {
      "inputs": [
        {
          "internalType": "address",
          "name": "_collateralToken",
          "type": "address"
        },
        {
          "internalType": "address",
          "name": "_receiver",
          "type": "address"
        },
        {
          "internalType": "uint256",
          "name": "_collateralAmount",
          "type": "uint256"
        }
      ],
      "name": "decreaseCollateral",
      "outputs": [
        {
          "internalType": "bool",
          "name": "",
          "type": "bool"
        }
      ],
      "stateMutability": "nonpayable",
      "type": "function"
    },
    {
      "inputs": [
        {
          "internalType": "address",
          "name": "_from",
          "type": "address"
        },
        {
          "internalType": "address",
          "name": "_collateralToken",
          "type": "address"
        },
        {
          "internalType": "address",
          "name": "_receiver",
          "type": "address"
        },
        {
          "internalType": "uint256",
          "name": "_collateralAmount",
          "type": "uint256"
        }
      ],
      "name": "decreaseCollateralFrom",
      "outputs": [
        {
          "internalType": "bool",
          "name": "",
          "type": "bool"
        }
      ],
      "stateMutability": "nonpayable",
      "type": "function"
    },
    {
      "inputs": [
        {
          "internalType": "address",
          "name": "_collateralToken",
          "type": "address"
        },
        {
          "internalType": "address",
          "name": "_receiver",
          "type": "address"
        }
      ],
      "name": "decreaseDebt",
      "outputs": [
        {
          "internalType": "bool",
          "name": "",
          "type": "bool"
        }
      ],
      "stateMutability": "nonpayable",
      "type": "function"
    },
    {
      "inputs": [
        {
          "internalType": "address",
          "name": "_token",
          "type": "address"
        }
      ],
      "name": "getPrice",
      "outputs": [
        {
          "internalType": "uint256",
          "name": "",
          "type": "uint256"
        }
      ],
      "stateMutability": "view",
      "type": "function"
    },
    {
      "inputs": [],
      "name": "gov",
      "outputs": [
        {
          "internalType": "address",
          "name": "",
          "type": "address"
        }
      ],
      "stateMutability": "view",
      "type": "function"
    },
    {
      "inputs": [
        {
          "internalType": "address",
          "name": "_collateralToken",
          "type": "address"
        },
        {
          "internalType": "address",
          "name": "_receiver",
          "type": "address"
        }
      ],
      "name": "increaseCollateral",
      "outputs": [
        {
          "internalType": "bool",
          "name": "",
          "type": "bool"
        }
      ],
      "stateMutability": "nonpayable",
      "type": "function"
    },
    {
      "inputs": [
        {
          "internalType": "address",
          "name": "_collateralToken",
          "type": "address"
        },
        {
          "internalType": "uint256",
          "name": "_amount",
          "type": "uint256"
        },
        {
          "internalType": "address",
          "name": "_receiver",
          "type": "address"
        }
      ],
      "name": "increaseDebt",
      "outputs": [
        {
          "internalType": "bool",
          "name": "",
          "type": "bool"
        }
      ],
      "stateMutability": "nonpayable",
      "type": "function"
    },
    {
      "inputs": [
        {
          "internalType": "address",
          "name": "_from",
          "type": "address"
        },
        {
          "internalType": "address",
          "name": "_collateralToken",
          "type": "address"
        },
        {
          "internalType": "uint256",
          "name": "_amount",
          "type": "uint256"
        },
        {
          "internalType": "address",
          "name": "_receiver",
          "type": "address"
        }
      ],
      "name": "increaseDebtFrom",
      "outputs": [
        {
          "internalType": "bool",
          "name": "",
          "type": "bool"
        }
      ],
      "stateMutability": "nonpayable",
      "type": "function"
    },
    {
      "inputs": [
        {
          "internalType": "address",
          "name": "_collateralToken",
          "type": "address"
        },
        {
          "internalType": "address",
          "name": "_account",
          "type": "address"
        },
        {
          "internalType": "address",
          "name": "_feeTo",
          "type": "address"
        }
      ],
      "name": "liquidation",
      "outputs": [
        {
          "internalType": "bool",
          "name": "",
          "type": "bool"
        }
      ],
      "stateMutability": "nonpayable",
      "type": "function"
    },
    {
      "inputs": [],
      "name": "liquidationRatio",
      "outputs": [
        {
          "internalType": "uint256",
          "name": "",
          "type": "uint256"
        }
      ],
      "stateMutability": "view",
      "type": "function"
    },
    {
      "inputs": [],
      "name": "liquidationTreasuryFee",
      "outputs": [
        {
          "internalType": "uint256",
          "name": "",
          "type": "uint256"
        }
      ],
      "stateMutability": "view",
      "type": "function"
    },
    {
      "inputs": [],
      "name": "minimumCollateral",
      "outputs": [
        {
          "internalType": "uint256",
          "name": "",
          "type": "uint256"
        }
      ],
      "stateMutability": "view",
      "type": "function"
    },
    {
      "inputs": [],
      "name": "priceFeed",
      "outputs": [
        {
          "internalType": "address",
          "name": "",
          "type": "address"
        }
      ],
      "stateMutability": "view",
      "type": "function"
    },
    {
      "inputs": [
        {
          "internalType": "address",
          "name": "_gov",
          "type": "address"
        }
      ],
      "name": "setGov",
      "outputs": [],
      "stateMutability": "nonpayable",
      "type": "function"
    },
    {
      "inputs": [
        {
          "internalType": "uint256",
          "name": "_ratio",
          "type": "uint256"
        }
      ],
      "name": "setLiquidationRatio",
      "outputs": [],
      "stateMutability": "nonpayable",
      "type": "function"
    },
    {
      "inputs": [
        {
          "internalType": "uint256",
          "name": "_liquidationTreasuryFee",
          "type": "uint256"
        }
      ],
      "name": "setLiquidationTreasuryFee",
      "outputs": [],
      "stateMutability": "nonpayable",
      "type": "function"
    },
    {
      "inputs": [
        {
          "internalType": "uint256",
          "name": "_minimumCollateral",
          "type": "uint256"
        }
      ],
      "name": "setMinimumCollateral",
      "outputs": [],
      "stateMutability": "nonpayable",
      "type": "function"
    },
    {
      "inputs": [
        {
          "internalType": "address",
          "name": "_priceFeed",
          "type": "address"
        }
      ],
      "name": "setPriceFeed",
      "outputs": [],
      "stateMutability": "nonpayable",
      "type": "function"
    },
    {
      "inputs": [
        {
          "internalType": "address",
          "name": "_treasury",
          "type": "address"
        }
      ],
      "name": "setTreasury",
      "outputs": [],
      "stateMutability": "nonpayable",
      "type": "function"
    },
    {
      "inputs": [],
      "name": "tinu",
      "outputs": [
        {
          "internalType": "address",
          "name": "",
          "type": "address"
        }
      ],
      "stateMutability": "view",
      "type": "function"
    },
    {
      "inputs": [
        {
          "internalType": "uint256",
          "name": "_price",
          "type": "uint256"
        },
        {
          "internalType": "uint256",
          "name": "amount",
          "type": "uint256"
        }
      ],
      "name": "tokenToTinu",
      "outputs": [
        {
          "internalType": "uint256",
          "name": "",
          "type": "uint256"
        }
      ],
      "stateMutability": "pure",
      "type": "function"
    },
    {
      "inputs": [
        {
          "internalType": "address",
          "name": "_newAccount",
          "type": "address"
        },
        {
          "internalType": "address",
          "name": "_collateralToken",
          "type": "address"
        }
      ],
      "name": "transferVaultOwner",
      "outputs": [],
      "stateMutability": "nonpayable",
      "type": "function"
    },
    {
      "inputs": [],
      "name": "treasury",
      "outputs": [
        {
          "internalType": "address",
          "name": "",
          "type": "address"
        }
      ],
      "stateMutability": "view",
      "type": "function"
    },
    {
      "inputs": [
        {
          "internalType": "address",
          "name": "_newVault",
          "type": "address"
        },
        {
          "internalType": "address",
          "name": "_token",
          "type": "address"
        },
        {
          "internalType": "uint256",
          "name": "_amount",
          "type": "uint256"
        }
      ],
      "name": "upgradeVault",
      "outputs": [],
      "stateMutability": "nonpayable",
      "type": "function"
    },
    {
      "inputs": [
        {
          "internalType": "address",
          "name": "_account",
          "type": "address"
        },
        {
          "internalType": "address",
          "name": "_collateralToken",
          "type": "address"
        },
        {
          "internalType": "bool",
          "name": "_checkCollateral",
          "type": "bool"
        }
      ],
      "name": "validateLiquidation",
      "outputs": [
        {
          "internalType": "bool",
          "name": "",
          "type": "bool"
        }
      ],
      "stateMutability": "view",
      "type": "function"
    },
    {
      "inputs": [
        {
          "internalType": "address",
          "name": "",
          "type": "address"
        },
        {
          "internalType": "address",
          "name": "",
          "type": "address"
        }
      ],
      "name": "vaultOwnerAccount",
      "outputs": [
        {
          "internalType": "uint256",
          "name": "tokenAssets",
          "type": "uint256"
        },
        {
          "internalType": "uint256",
          "name": "tinuDebt",
          "type": "uint256"
        }
      ],
      "stateMutability": "view",
      "type": "function"
    },
    {
      "inputs": [
        {
          "internalType": "address",
          "name": "",
          "type": "address"
        }
      ],
      "name": "vaultPoolAccount",
      "outputs": [
        {
          "internalType": "uint256",
          "name": "tokenAssets",
          "type": "uint256"
        },
        {
          "internalType": "uint256",
          "name": "tinuDebt",
          "type": "uint256"
        }
      ],
      "stateMutability": "view",
      "type": "function"
    }
  ],
  "transactionHash": "0x13bf8373eccae2470fd18fa2596073042459a7b78f47b31a78b3782d42f75948",
  "args": [
    "0x1314926aFF6449144432971D3e731Bb84D2D3373"
  ],
  "numDeployments": 1,
  "solcInputHash": "56c069654fb841afd02cf6fba187d143",
  "bytecode": "0x60806040526103de60045561047e60055568056bc75e2d631000006006553480156200002a57600080fd5b50604051620034c3380380620034c3833981810160405281019062000050919062000142565b336000806101000a81548173ffffffffffffffffffffffffffffffffffffffff021916908373ffffffffffffffffffffffffffffffffffffffff16021790555080600160006101000a81548173ffffffffffffffffffffffffffffffffffffffff021916908373ffffffffffffffffffffffffffffffffffffffff1602179055505062000174565b600080fd5b600073ffffffffffffffffffffffffffffffffffffffff82169050919050565b60006200010a82620000dd565b9050919050565b6200011c81620000fd565b81146200012857600080fd5b50565b6000815190506200013c8162000111565b92915050565b6000602082840312156200015b576200015a620000d8565b5b60006200016b848285016200012b565b91505092915050565b61333f80620001846000396000f3fe608060405234801561001057600080fd5b50600436106101da5760003560e01c80637c4f021b11610104578063c3aaef26116100a2578063cfad57a211610071578063cfad57a2146105b7578063f0f44260146105d3578063f8190a46146105ef578063fb5bc1591461061f576101da565b8063c3aaef2614610531578063c865c8851461054f578063c9af2cf41461056b578063cea0c3281461059b576101da565b8063b82008e5116100de578063b82008e514610497578063babe7c74146104b3578063bdb60897146104d1578063c2d7ef6d14610501576101da565b80637c4f021b1461042c5780638929d36d1461045d578063946ce8cd1461047b576101da565b80633d140d211161017c57806361d027b31161014b57806361d027b3146103a4578063724e78da146103c2578063741bef1a146103de578063786106f3146103fc576101da565b80633d140d21146102f857806341976e09146103145780634a1912931461034457806355b6ed5c14610374576101da565b8063265dd443116101b8578063265dd4431461024c57806329c8bbe51461027c5780632bc2ccdc146102ac578063326d5749146102dc576101da565b806312d43a51146101df5780631775765f146101fd57806322a65a391461021b575b600080fd5b6101e761064f565b6040516101f491906126a6565b60405180910390f35b610205610673565b60405161021291906126da565b60405180910390f35b61023560048036038101906102309190612726565b610679565b604051610243929190612766565b60405180910390f35b610266600480360381019061026191906127c7565b6106aa565b6040516102739190612829565b60405180910390f35b61029660048036038101906102919190612726565b610813565b6040516102a39190612829565b60405180910390f35b6102c660048036038101906102c19190612870565b610b11565b6040516102d39190612829565b60405180910390f35b6102f660048036038101906102f191906128d7565b610bf5565b005b610312600480360381019061030d9190612904565b610c8d565b005b61032e60048036038101906103299190612944565b610d75565b60405161033b91906126da565b60405180910390f35b61035e60048036038101906103599190612726565b610e1a565b60405161036b9190612829565b60405180910390f35b61038e60048036038101906103899190612726565b611195565b60405161039b9190612829565b60405180910390f35b6103ac6111c4565b6040516103b991906126a6565b60405180910390f35b6103dc60048036038101906103d79190612944565b6111ea565b005b6103e66112bc565b6040516103f391906126a6565b60405180910390f35b61041660048036038101906104119190612971565b6112e2565b6040516104239190612829565b60405180910390f35b61044660048036038101906104419190612944565b611753565b604051610454929190612766565b60405180910390f35b610465611777565b60405161047291906126a6565b60405180910390f35b610495600480360381019061049091906128d7565b61179d565b005b6104b160048036038101906104ac91906128d7565b611835565b005b6104bb6118cd565b6040516104c891906126da565b60405180910390f35b6104eb60048036038101906104e691906129c4565b6118d3565b6040516104f89190612829565b60405180910390f35b61051b60048036038101906105169190612a2b565b6119b7565b6040516105289190612829565b60405180910390f35b6105396119d1565b60405161054691906126da565b60405180910390f35b61056960048036038101906105649190612726565b6119d7565b005b61058560048036038101906105809190612a7e565b611bef565b60405161059291906126da565b60405180910390f35b6105b560048036038101906105b09190612a2b565b611c26565b005b6105d160048036038101906105cc9190612944565b611d38565b005b6105ed60048036038101906105e89190612944565b611e09565b005b61060960048036038101906106049190612abe565b611edb565b6040516106169190612829565b60405180910390f35b61063960048036038101906106349190612726565b611ef5565b60405161064691906126da565b60405180910390f35b60008054906101000a900473ffffffffffffffffffffffffffffffffffffffff1681565b60055481565b6007602052816000526040600020602052806000526040600020600091509150508060000154908060010154905082565b600080600760008673ffffffffffffffffffffffffffffffffffffffff1673ffffffffffffffffffffffffffffffffffffffff16815260200190815260200160002060008573ffffffffffffffffffffffffffffffffffffffff1673ffffffffffffffffffffffffffffffffffffffff168152602001908152602001600020604051806040016040529081600082015481526020016001820154815250509050600061075585610d75565b90506000610767828460000151611bef565b905084801561077a575060008360200151115b156107c5576006548110156107c4576040517f08c379a00000000000000000000000000000000000000000000000000000000081526004016107bb90612b6e565b60405180910390fd5b5b6107de6005548460200151611feb90919063ffffffff16565b6107f36103e883611feb90919063ffffffff16565b10610804576000935050505061080c565b600193505050505b9392505050565b600080600160009054906101000a900473ffffffffffffffffffffffffffffffffffffffff1673ffffffffffffffffffffffffffffffffffffffff166370a08231306040518263ffffffff1660e01b815260040161087191906126a6565b602060405180830381865afa15801561088e573d6000803e3d6000fd5b505050506040513d601f19601f820116820180604052508101906108b29190612ba3565b9050600081116108f7576040517f08c379a00000000000000000000000000000000000000000000000000000000081526004016108ee90612c1c565b60405180910390fd5b600160009054906101000a900473ffffffffffffffffffffffffffffffffffffffff1673ffffffffffffffffffffffffffffffffffffffff166342966c68826040518263ffffffff1660e01b815260040161095291906126da565b6020604051808303816000875af1158015610971573d6000803e3d6000fd5b505050506040513d601f19601f820116820180604052508101906109959190612c51565b50610a2881600760008673ffffffffffffffffffffffffffffffffffffffff1673ffffffffffffffffffffffffffffffffffffffff16815260200190815260200160002060008773ffffffffffffffffffffffffffffffffffffffff1673ffffffffffffffffffffffffffffffffffffffff1681526020019081526020016000206001015461200190919063ffffffff16565b600760008573ffffffffffffffffffffffffffffffffffffffff1673ffffffffffffffffffffffffffffffffffffffff16815260200190815260200160002060008673ffffffffffffffffffffffffffffffffffffffff1673ffffffffffffffffffffffffffffffffffffffff168152602001908152602001600020600101819055508273ffffffffffffffffffffffffffffffffffffffff167f6191e1160412453182c4535b14a72bce04570fd48159a3ad74fe1ba701a4bea38583610aef8789611ef5565b604051610afe93929190612c7e565b60405180910390a2600191505092915050565b6000600960008673ffffffffffffffffffffffffffffffffffffffff1673ffffffffffffffffffffffffffffffffffffffff16815260200190815260200160002060003373ffffffffffffffffffffffffffffffffffffffff1673ffffffffffffffffffffffffffffffffffffffff16815260200190815260200160002060009054906101000a900460ff16610bdc576040517f08c379a0000000000000000000000000000000000000000000000000000000008152600401610bd390612d01565b60405180910390fd5b610be885858585612017565b5060019050949350505050565b60008054906101000a900473ffffffffffffffffffffffffffffffffffffffff1673ffffffffffffffffffffffffffffffffffffffff163373ffffffffffffffffffffffffffffffffffffffff1614610c83576040517f08c379a0000000000000000000000000000000000000000000000000000000008152600401610c7a90612d6d565b60405180910390fd5b8060068190555050565b80600960003373ffffffffffffffffffffffffffffffffffffffff1673ffffffffffffffffffffffffffffffffffffffff16815260200190815260200160002060008473ffffffffffffffffffffffffffffffffffffffff1673ffffffffffffffffffffffffffffffffffffffff16815260200190815260200160002060006101000a81548160ff0219169083151502179055503373ffffffffffffffffffffffffffffffffffffffff167f1d3e246ebbc933bf65d3290db9f93d67ab91a12d2b19308a35806e04d1c174c58383604051610d69929190612d8d565b60405180910390a25050565b6000600260009054906101000a900473ffffffffffffffffffffffffffffffffffffffff1673ffffffffffffffffffffffffffffffffffffffff166341976e09836040518263ffffffff1660e01b8152600401610dd291906126a6565b602060405180830381865afa158015610def573d6000803e3d6000fd5b505050506040513d601f19601f82011682018060405250810190610e139190612ba3565b9050919050565b600080600860008573ffffffffffffffffffffffffffffffffffffffff1673ffffffffffffffffffffffffffffffffffffffff16815260200190815260200160002060000154905060008473ffffffffffffffffffffffffffffffffffffffff166370a08231306040518263ffffffff1660e01b8152600401610e9d91906126a6565b602060405180830381865afa158015610eba573d6000803e3d6000fd5b505050506040513d601f19601f82011682018060405250810190610ede9190612ba3565b905060008111610f23576040517f08c379a0000000000000000000000000000000000000000000000000000000008152600401610f1a90612e02565b60405180910390fd5b6000610f38838361200190919063ffffffff16565b905060008111610f7d576040517f08c379a0000000000000000000000000000000000000000000000000000000008152600401610f7490612e6e565b60405180910390fd5b61100f81600760008873ffffffffffffffffffffffffffffffffffffffff1673ffffffffffffffffffffffffffffffffffffffff16815260200190815260200160002060008973ffffffffffffffffffffffffffffffffffffffff1673ffffffffffffffffffffffffffffffffffffffff168152602001908152602001600020600001546123c890919063ffffffff16565b600760008773ffffffffffffffffffffffffffffffffffffffff1673ffffffffffffffffffffffffffffffffffffffff16815260200190815260200160002060008873ffffffffffffffffffffffffffffffffffffffff1673ffffffffffffffffffffffffffffffffffffffff168152602001908152602001600020600001819055506110e781600860008973ffffffffffffffffffffffffffffffffffffffff1673ffffffffffffffffffffffffffffffffffffffff168152602001908152602001600020600001546123c890919063ffffffff16565b600860008873ffffffffffffffffffffffffffffffffffffffff1673ffffffffffffffffffffffffffffffffffffffff168152602001908152602001600020600001819055508473ffffffffffffffffffffffffffffffffffffffff167fc018c5ce6680a05e2767de24f074f61174350a9d6174b570e45a604563f6e53a8783611171898b611ef5565b60405161118093929190612c7e565b60405180910390a26001935050505092915050565b60096020528160005260406000206020528060005260406000206000915091509054906101000a900460ff1681565b600360009054906101000a900473ffffffffffffffffffffffffffffffffffffffff1681565b60008054906101000a900473ffffffffffffffffffffffffffffffffffffffff1673ffffffffffffffffffffffffffffffffffffffff163373ffffffffffffffffffffffffffffffffffffffff1614611278576040517f08c379a000000000000000000000000000000000000000000000000000000000815260040161126f90612d6d565b60405180910390fd5b80600260006101000a81548173ffffffffffffffffffffffffffffffffffffffff021916908373ffffffffffffffffffffffffffffffffffffffff16021790555050565b600260009054906101000a900473ffffffffffffffffffffffffffffffffffffffff1681565b6000806112f1848660006106aa565b905080611333576040517f08c379a000000000000000000000000000000000000000000000000000000000815260040161132a90612eda565b60405180910390fd5b6000600160009054906101000a900473ffffffffffffffffffffffffffffffffffffffff1673ffffffffffffffffffffffffffffffffffffffff166370a08231306040518263ffffffff1660e01b815260040161139091906126a6565b602060405180830381865afa1580156113ad573d6000803e3d6000fd5b505050506040513d601f19601f820116820180604052508101906113d19190612ba3565b90506000600760008773ffffffffffffffffffffffffffffffffffffffff1673ffffffffffffffffffffffffffffffffffffffff16815260200190815260200160002060008873ffffffffffffffffffffffffffffffffffffffff1673ffffffffffffffffffffffffffffffffffffffff1681526020019081526020016000209050806001015482101561149a576040517f08c379a000000000000000000000000000000000000000000000000000000000815260040161149190612f46565b60405180910390fd5b600160009054906101000a900473ffffffffffffffffffffffffffffffffffffffff1673ffffffffffffffffffffffffffffffffffffffff166342966c6882600101546040518263ffffffff1660e01b81526004016114f991906126da565b6020604051808303816000875af1158015611518573d6000803e3d6000fd5b505050506040513d601f19601f8201168201806040525081019061153c9190612c51565b5060006115966103e86115886115616004548660000154611feb90919063ffffffff16565b61157a6103e88760000154611feb90919063ffffffff16565b61200190919063ffffffff16565b6123de90919063ffffffff16565b905060006115b182846000015461200190919063ffffffff16565b90508873ffffffffffffffffffffffffffffffffffffffff1663a9059cbb600360009054906101000a900473ffffffffffffffffffffffffffffffffffffffff16846040518363ffffffff1660e01b8152600401611610929190612f66565b6020604051808303816000875af115801561162f573d6000803e3d6000fd5b505050506040513d601f19601f820116820180604052508101906116539190612c51565b508873ffffffffffffffffffffffffffffffffffffffff1663a9059cbb88836040518363ffffffff1660e01b815260040161168f929190612f66565b6020604051808303816000875af11580156116ae573d6000803e3d6000fd5b505050506040513d601f19601f820116820180604052508101906116d29190612c51565b508773ffffffffffffffffffffffffffffffffffffffff167fcccbd13f642722af82e739ab754dfdaa1f106fb544a0d6cd410e02925902d8498a856000015486600101548b6040516117279493929190612f8f565b60405180910390a260008360010181905550600083600001819055506001955050505050509392505050565b60086020528060005260406000206000915090508060000154908060010154905082565b600160009054906101000a900473ffffffffffffffffffffffffffffffffffffffff1681565b60008054906101000a900473ffffffffffffffffffffffffffffffffffffffff1673ffffffffffffffffffffffffffffffffffffffff163373ffffffffffffffffffffffffffffffffffffffff161461182b576040517f08c379a000000000000000000000000000000000000000000000000000000000815260040161182290612d6d565b60405180910390fd5b8060058190555050565b60008054906101000a900473ffffffffffffffffffffffffffffffffffffffff1673ffffffffffffffffffffffffffffffffffffffff163373ffffffffffffffffffffffffffffffffffffffff16146118c3576040517f08c379a00000000000000000000000000000000000000000000000000000000081526004016118ba90612d6d565b60405180910390fd5b8060048190555050565b60065481565b6000600960008673ffffffffffffffffffffffffffffffffffffffff1673ffffffffffffffffffffffffffffffffffffffff16815260200190815260200160002060003373ffffffffffffffffffffffffffffffffffffffff1673ffffffffffffffffffffffffffffffffffffffff16815260200190815260200160002060009054906101000a900460ff1661199e576040517f08c379a000000000000000000000000000000000000000000000000000000000815260040161199590612d01565b60405180910390fd5b6119aa858585856123f4565b5060019050949350505050565b60006119c533858585612017565b50600190509392505050565b60045481565b6000600760003373ffffffffffffffffffffffffffffffffffffffff1673ffffffffffffffffffffffffffffffffffffffff16815260200190815260200160002060008373ffffffffffffffffffffffffffffffffffffffff1673ffffffffffffffffffffffffffffffffffffffff16815260200190815260200160002090506000600760008573ffffffffffffffffffffffffffffffffffffffff1673ffffffffffffffffffffffffffffffffffffffff16815260200190815260200160002060008473ffffffffffffffffffffffffffffffffffffffff1673ffffffffffffffffffffffffffffffffffffffff16815260200190815260200160002090506000816000015414611b1e576040517f08c379a0000000000000000000000000000000000000000000000000000000008152600401611b1590613020565b60405180910390fd5b611b39826000015482600001546123c890919063ffffffff16565b8160000181905550611b5c826001015482600101546123c890919063ffffffff16565b816001018190555060008260000181905550600082600101819055508373ffffffffffffffffffffffffffffffffffffffff163373ffffffffffffffffffffffffffffffffffffffff167f4fe5839fdbf54904a01ecfaee9b7148fdaa27cd24e3af269eab70da7ee90d1278585600001548660010154604051611be193929190612c7e565b60405180910390a350505050565b6000611c1e670de0b6b3a7640000611c108486611feb90919063ffffffff16565b6123de90919063ffffffff16565b905092915050565b60008054906101000a900473ffffffffffffffffffffffffffffffffffffffff1673ffffffffffffffffffffffffffffffffffffffff163373ffffffffffffffffffffffffffffffffffffffff1614611cb4576040517f08c379a0000000000000000000000000000000000000000000000000000000008152600401611cab90612d6d565b60405180910390fd5b8173ffffffffffffffffffffffffffffffffffffffff1663a9059cbb84836040518363ffffffff1660e01b8152600401611cef929190612f66565b6020604051808303816000875af1158015611d0e573d6000803e3d6000fd5b505050506040513d601f19601f82011682018060405250810190611d329190612c51565b50505050565b60008054906101000a900473ffffffffffffffffffffffffffffffffffffffff1673ffffffffffffffffffffffffffffffffffffffff163373ffffffffffffffffffffffffffffffffffffffff1614611dc6576040517f08c379a0000000000000000000000000000000000000000000000000000000008152600401611dbd90612d6d565b60405180910390fd5b806000806101000a81548173ffffffffffffffffffffffffffffffffffffffff021916908373ffffffffffffffffffffffffffffffffffffffff16021790555050565b60008054906101000a900473ffffffffffffffffffffffffffffffffffffffff1673ffffffffffffffffffffffffffffffffffffffff163373ffffffffffffffffffffffffffffffffffffffff1614611e97576040517f08c379a0000000000000000000000000000000000000000000000000000000008152600401611e8e90612d6d565b60405180910390fd5b80600360006101000a81548173ffffffffffffffffffffffffffffffffffffffff021916908373ffffffffffffffffffffffffffffffffffffffff16021790555050565b6000611ee9338585856123f4565b50600190509392505050565b600080600760008573ffffffffffffffffffffffffffffffffffffffff1673ffffffffffffffffffffffffffffffffffffffff16815260200190815260200160002060008473ffffffffffffffffffffffffffffffffffffffff1673ffffffffffffffffffffffffffffffffffffffff168152602001908152602001600020604051806040016040529081600082015481526020016001820154815250509050600081600001511115611fdf576000611fd38260000151611fc56005548560200151611feb90919063ffffffff16565b6123de90919063ffffffff16565b90508092505050611fe5565b60009150505b92915050565b60008183611ff9919061306f565b905092915050565b6000818361200f91906130b1565b905092915050565b600080600760008773ffffffffffffffffffffffffffffffffffffffff1673ffffffffffffffffffffffffffffffffffffffff16815260200190815260200160002060008673ffffffffffffffffffffffffffffffffffffffff1673ffffffffffffffffffffffffffffffffffffffff168152602001908152602001600020600001549050808311156120df576040517f08c379a00000000000000000000000000000000000000000000000000000000081526004016120d690613157565b60405180910390fd5b61217183600760008973ffffffffffffffffffffffffffffffffffffffff1673ffffffffffffffffffffffffffffffffffffffff16815260200190815260200160002060008873ffffffffffffffffffffffffffffffffffffffff1673ffffffffffffffffffffffffffffffffffffffff1681526020019081526020016000206000015461200190919063ffffffff16565b600760008873ffffffffffffffffffffffffffffffffffffffff1673ffffffffffffffffffffffffffffffffffffffff16815260200190815260200160002060008773ffffffffffffffffffffffffffffffffffffffff1673ffffffffffffffffffffffffffffffffffffffff1681526020019081526020016000206000018190555061224983600860008873ffffffffffffffffffffffffffffffffffffffff1673ffffffffffffffffffffffffffffffffffffffff1681526020019081526020016000206000015461200190919063ffffffff16565b600860008773ffffffffffffffffffffffffffffffffffffffff1673ffffffffffffffffffffffffffffffffffffffff16815260200190815260200160002060000181905550600061229d878760016106aa565b905080156122e0576040517f08c379a00000000000000000000000000000000000000000000000000000000081526004016122d7906131e9565b60405180910390fd5b8573ffffffffffffffffffffffffffffffffffffffff1663a9059cbb86866040518363ffffffff1660e01b815260040161231b929190612f66565b6020604051808303816000875af115801561233a573d6000803e3d6000fd5b505050506040513d601f19601f8201168201806040525081019061235e9190612c51565b508673ffffffffffffffffffffffffffffffffffffffff167f2c6aed3057b9136b845c3761a4684127a3a8e61936c65a966b9bba401bb2ae5087866123a3898b611ef5565b6040516123b293929190612c7e565b60405180910390a2600192505050949350505050565b600081836123d69190613209565b905092915050565b600081836123ec919061326c565b905092915050565b600061248883600760008873ffffffffffffffffffffffffffffffffffffffff1673ffffffffffffffffffffffffffffffffffffffff16815260200190815260200160002060008773ffffffffffffffffffffffffffffffffffffffff1673ffffffffffffffffffffffffffffffffffffffff168152602001908152602001600020600101546123c890919063ffffffff16565b600760008773ffffffffffffffffffffffffffffffffffffffff1673ffffffffffffffffffffffffffffffffffffffff16815260200190815260200160002060008673ffffffffffffffffffffffffffffffffffffffff1673ffffffffffffffffffffffffffffffffffffffff168152602001908152602001600020600101819055506000612519868660016106aa565b9050801561255c576040517f08c379a0000000000000000000000000000000000000000000000000000000008152600401612553906132e9565b60405180910390fd5b600160009054906101000a900473ffffffffffffffffffffffffffffffffffffffff1673ffffffffffffffffffffffffffffffffffffffff166340c10f1984866040518363ffffffff1660e01b81526004016125b9929190612f66565b6020604051808303816000875af11580156125d8573d6000803e3d6000fd5b505050506040513d601f19601f820116820180604052508101906125fc9190612c51565b508573ffffffffffffffffffffffffffffffffffffffff167f5940cc8819ecb72af6452aeaafa574b882556ce1589c18e4743ca7bec194371d8686612641878a611ef5565b60405161265093929190612c7e565b60405180910390a26001915050949350505050565b600073ffffffffffffffffffffffffffffffffffffffff82169050919050565b600061269082612665565b9050919050565b6126a081612685565b82525050565b60006020820190506126bb6000830184612697565b92915050565b6000819050919050565b6126d4816126c1565b82525050565b60006020820190506126ef60008301846126cb565b92915050565b600080fd5b61270381612685565b811461270e57600080fd5b50565b600081359050612720816126fa565b92915050565b6000806040838503121561273d5761273c6126f5565b5b600061274b85828601612711565b925050602061275c85828601612711565b9150509250929050565b600060408201905061277b60008301856126cb565b61278860208301846126cb565b9392505050565b60008115159050919050565b6127a48161278f565b81146127af57600080fd5b50565b6000813590506127c18161279b565b92915050565b6000806000606084860312156127e0576127df6126f5565b5b60006127ee86828701612711565b93505060206127ff86828701612711565b9250506040612810868287016127b2565b9150509250925092565b6128238161278f565b82525050565b600060208201905061283e600083018461281a565b92915050565b61284d816126c1565b811461285857600080fd5b50565b60008135905061286a81612844565b92915050565b6000806000806080858703121561288a576128896126f5565b5b600061289887828801612711565b94505060206128a987828801612711565b93505060406128ba87828801612711565b92505060606128cb8782880161285b565b91505092959194509250565b6000602082840312156128ed576128ec6126f5565b5b60006128fb8482850161285b565b91505092915050565b6000806040838503121561291b5761291a6126f5565b5b600061292985828601612711565b925050602061293a858286016127b2565b9150509250929050565b60006020828403121561295a576129596126f5565b5b600061296884828501612711565b91505092915050565b60008060006060848603121561298a576129896126f5565b5b600061299886828701612711565b93505060206129a986828701612711565b92505060406129ba86828701612711565b9150509250925092565b600080600080608085870312156129de576129dd6126f5565b5b60006129ec87828801612711565b94505060206129fd87828801612711565b9350506040612a0e8782880161285b565b9250506060612a1f87828801612711565b91505092959194509250565b600080600060608486031215612a4457612a436126f5565b5b6000612a5286828701612711565b9350506020612a6386828701612711565b9250506040612a748682870161285b565b9150509250925092565b60008060408385031215612a9557612a946126f5565b5b6000612aa38582860161285b565b9250506020612ab48582860161285b565b9150509250929050565b600080600060608486031215612ad757612ad66126f5565b5b6000612ae586828701612711565b9350506020612af68682870161285b565b9250506040612b0786828701612711565b9150509250925092565b600082825260208201905092915050565b7f5661756c743a206d696e696d756d436f6c6c61746572616c0000000000000000600082015250565b6000612b58601883612b11565b9150612b6382612b22565b602082019050919050565b60006020820190508181036000830152612b8781612b4b565b9050919050565b600081519050612b9d81612844565b92915050565b600060208284031215612bb957612bb86126f5565b5b6000612bc784828501612b8e565b91505092915050565b7f62616c616e6365203d3d20300000000000000000000000000000000000000000600082015250565b6000612c06600c83612b11565b9150612c1182612bd0565b602082019050919050565b60006020820190508181036000830152612c3581612bf9565b9050919050565b600081519050612c4b8161279b565b92915050565b600060208284031215612c6757612c666126f5565b5b6000612c7584828501612c3c565b91505092915050565b6000606082019050612c936000830186612697565b612ca060208301856126cb565b612cad60408301846126cb565b949350505050565b7f5661756c743a206e6f7420616c6c6f7700000000000000000000000000000000600082015250565b6000612ceb601083612b11565b9150612cf682612cb5565b602082019050919050565b60006020820190508181036000830152612d1a81612cde565b9050919050565b7f5661756c743a206f6e6c79476f76000000000000000000000000000000000000600082015250565b6000612d57600e83612b11565b9150612d6282612d21565b602082019050919050565b60006020820190508181036000830152612d8681612d4a565b9050919050565b6000604082019050612da26000830185612697565b612daf602083018461281a565b9392505050565b7f5661756c743a2062616c616e6365313d3d300000000000000000000000000000600082015250565b6000612dec601283612b11565b9150612df782612db6565b602082019050919050565b60006020820190508181036000830152612e1b81612ddf565b9050919050565b7f5661756c743a2030000000000000000000000000000000000000000000000000600082015250565b6000612e58600883612b11565b9150612e6382612e22565b602082019050919050565b60006020820190508181036000830152612e8781612e4b565b9050919050565b7f5661756c743a206e6f2076616c69646174654c69717569646174696f6e000000600082015250565b6000612ec4601d83612b11565b9150612ecf82612e8e565b602082019050919050565b60006020820190508181036000830152612ef381612eb7565b9050919050565b7f5661756c743a20696e73756666696369656e7420756e697420746f6b656e0000600082015250565b6000612f30601e83612b11565b9150612f3b82612efa565b602082019050919050565b60006020820190508181036000830152612f5f81612f23565b9050919050565b6000604082019050612f7b6000830185612697565b612f8860208301846126cb565b9392505050565b6000608082019050612fa46000830187612697565b612fb160208301866126cb565b612fbe60408301856126cb565b612fcb6060830184612697565b95945050505050565b7f5661756c743a206e65774163636f756e74206e6f74206e657700000000000000600082015250565b600061300a601983612b11565b915061301582612fd4565b602082019050919050565b6000602082019050818103600083015261303981612ffd565b9050919050565b7f4e487b7100000000000000000000000000000000000000000000000000000000600052601160045260246000fd5b600061307a826126c1565b9150613085836126c1565b9250828202613093816126c1565b915082820484148315176130aa576130a9613040565b5b5092915050565b60006130bc826126c1565b91506130c7836126c1565b92508282039050818111156130df576130de613040565b5b92915050565b7f5661756c743a20696e73756666696369656e7420636f6c6c61746572616c206260008201527f616c616e63652100000000000000000000000000000000000000000000000000602082015250565b6000613141602783612b11565b915061314c826130e5565b604082019050919050565b6000602082019050818103600083015261317081613134565b9050919050565b7f5661756c743a20636f6c6c61746572616c20616d6f756e74206f7574206f662060008201527f72616e6765000000000000000000000000000000000000000000000000000000602082015250565b60006131d3602583612b11565b91506131de82613177565b604082019050919050565b60006020820190508181036000830152613202816131c6565b9050919050565b6000613214826126c1565b915061321f836126c1565b925082820190508082111561323757613236613040565b5b92915050565b7f4e487b7100000000000000000000000000000000000000000000000000000000600052601260045260246000fd5b6000613277826126c1565b9150613282836126c1565b9250826132925761329161323d565b5b828204905092915050565b7f5661756c743a20756e69742064656274206f7574206f662072616e6765000000600082015250565b60006132d3601d83612b11565b91506132de8261329d565b602082019050919050565b60006020820190508181036000830152613302816132c6565b905091905056fea2646970667358221220e10b9243b6e32f4ded072a336189c965b94182080b274b025ae06be30df0b65464736f6c63430008110033",
  "devdoc": {
    "kind": "dev",
    "methods": {},
    "version": 1
  },
  "userdoc": {
    "kind": "user",
    "methods": {},
    "version": 1
  },
  "storageLayout": {
    "storage": [
      {
        "astId": 1282,
        "contract": "contracts/core/Vault.sol:Vault",
        "label": "gov",
        "offset": 0,
        "slot": "0",
        "type": "t_address"
      },
      {
        "astId": 1284,
        "contract": "contracts/core/Vault.sol:Vault",
        "label": "tinu",
        "offset": 0,
        "slot": "1",
        "type": "t_address"
      },
      {
        "astId": 1286,
        "contract": "contracts/core/Vault.sol:Vault",
        "label": "priceFeed",
        "offset": 0,
        "slot": "2",
        "type": "t_address"
      },
      {
        "astId": 1288,
        "contract": "contracts/core/Vault.sol:Vault",
        "label": "treasury",
        "offset": 0,
        "slot": "3",
        "type": "t_address"
      },
      {
        "astId": 1291,
        "contract": "contracts/core/Vault.sol:Vault",
        "label": "liquidationTreasuryFee",
        "offset": 0,
        "slot": "4",
        "type": "t_uint256"
      },
      {
        "astId": 1294,
        "contract": "contracts/core/Vault.sol:Vault",
        "label": "liquidationRatio",
        "offset": 0,
        "slot": "5",
        "type": "t_uint256"
      },
      {
        "astId": 1299,
        "contract": "contracts/core/Vault.sol:Vault",
        "label": "minimumCollateral",
        "offset": 0,
        "slot": "6",
        "type": "t_uint256"
      },
      {
        "astId": 1312,
        "contract": "contracts/core/Vault.sol:Vault",
        "label": "vaultOwnerAccount",
        "offset": 0,
        "slot": "7",
        "type": "t_mapping(t_address,t_mapping(t_address,t_struct(Account)1304_storage))"
      },
      {
        "astId": 1317,
        "contract": "contracts/core/Vault.sol:Vault",
        "label": "vaultPoolAccount",
        "offset": 0,
        "slot": "8",
        "type": "t_mapping(t_address,t_struct(Account)1304_storage)"
      },
      {
        "astId": 1323,
        "contract": "contracts/core/Vault.sol:Vault",
        "label": "allowances",
        "offset": 0,
        "slot": "9",
        "type": "t_mapping(t_address,t_mapping(t_address,t_bool))"
      }
    ],
    "types": {
      "t_address": {
        "encoding": "inplace",
        "label": "address",
        "numberOfBytes": "20"
      },
      "t_bool": {
        "encoding": "inplace",
        "label": "bool",
        "numberOfBytes": "1"
      },
      "t_mapping(t_address,t_bool)": {
        "encoding": "mapping",
        "key": "t_address",
        "label": "mapping(address => bool)",
        "numberOfBytes": "32",
        "value": "t_bool"
      },
      "t_mapping(t_address,t_mapping(t_address,t_bool))": {
        "encoding": "mapping",
        "key": "t_address",
        "label": "mapping(address => mapping(address => bool))",
        "numberOfBytes": "32",
        "value": "t_mapping(t_address,t_bool)"
      },
      "t_mapping(t_address,t_mapping(t_address,t_struct(Account)1304_storage))": {
        "encoding": "mapping",
        "key": "t_address",
        "label": "mapping(address => mapping(address => struct Vault.Account))",
        "numberOfBytes": "32",
        "value": "t_mapping(t_address,t_struct(Account)1304_storage)"
      },
      "t_mapping(t_address,t_struct(Account)1304_storage)": {
        "encoding": "mapping",
        "key": "t_address",
        "label": "mapping(address => struct Vault.Account)",
        "numberOfBytes": "32",
        "value": "t_struct(Account)1304_storage"
      },
      "t_struct(Account)1304_storage": {
        "encoding": "inplace",
        "label": "struct Vault.Account",
        "members": [
          {
            "astId": 1301,
            "contract": "contracts/core/Vault.sol:Vault",
            "label": "tokenAssets",
            "offset": 0,
            "slot": "0",
            "type": "t_uint256"
          },
          {
            "astId": 1303,
            "contract": "contracts/core/Vault.sol:Vault",
            "label": "tinuDebt",
            "offset": 0,
            "slot": "1",
            "type": "t_uint256"
          }
        ],
        "numberOfBytes": "64"
      },
      "t_uint256": {
        "encoding": "inplace",
        "label": "uint256",
        "numberOfBytes": "32"
      }
    }
  }
}