{
  "address": "0x0baD00826C9019E20973B0e8270568f135A84C79",
  "abi": [
    {
      "inputs": [
        {
          "internalType": "address",
          "name": "_vault",
          "type": "address"
        },
        {
          "internalType": "address",
          "name": "_weth",
          "type": "address"
        },
        {
          "internalType": "address",
          "name": "_tinu",
          "type": "address"
        }
      ],
      "stateMutability": "nonpayable",
      "type": "constructor"
    },
    {
      "anonymous": false,
      "inputs": [
        {
          "indexed": true,
          "internalType": "address",
          "name": "receiver",
          "type": "address"
        },
        {
          "indexed": false,
          "internalType": "address",
          "name": "collateralToken",
          "type": "address"
        },
        {
          "indexed": false,
          "internalType": "uint256",
          "name": "amount",
          "type": "uint256"
        }
      ],
      "name": "BurnUnit",
      "type": "event"
    },
    {
      "anonymous": false,
      "inputs": [
        {
          "indexed": true,
          "internalType": "address",
          "name": "receiver",
          "type": "address"
        },
        {
          "indexed": false,
          "internalType": "address",
          "name": "collateralToken",
          "type": "address"
        },
        {
          "indexed": false,
          "internalType": "uint256",
          "name": "amount",
          "type": "uint256"
        }
      ],
      "name": "DecreaseCollateral",
      "type": "event"
    },
    {
      "anonymous": false,
      "inputs": [
        {
          "indexed": true,
          "internalType": "address",
          "name": "receiver",
          "type": "address"
        },
        {
          "indexed": false,
          "internalType": "address",
          "name": "collateralToken",
          "type": "address"
        },
        {
          "indexed": false,
          "internalType": "uint256",
          "name": "amount",
          "type": "uint256"
        }
      ],
      "name": "IncreaseCollateral",
      "type": "event"
    },
    {
      "anonymous": false,
      "inputs": [
        {
          "indexed": true,
          "internalType": "address",
          "name": "receiver",
          "type": "address"
        },
        {
          "indexed": false,
          "internalType": "address",
          "name": "collateralToken",
          "type": "address"
        },
        {
          "indexed": false,
          "internalType": "uint256",
          "name": "amount",
          "type": "uint256"
        }
      ],
      "name": "MintUnit",
      "type": "event"
    },
    {
      "inputs": [],
      "name": "TINU",
      "outputs": [
        {
          "internalType": "address",
          "name": "",
          "type": "address"
        }
      ],
      "stateMutability": "view",
      "type": "function"
    },
    {
      "inputs": [],
      "name": "VAULT",
      "outputs": [
        {
          "internalType": "address",
          "name": "",
          "type": "address"
        }
      ],
      "stateMutability": "view",
      "type": "function"
    },
    {
      "inputs": [],
      "name": "WETH",
      "outputs": [
        {
          "internalType": "address",
          "name": "",
          "type": "address"
        }
      ],
      "stateMutability": "view",
      "type": "function"
    },
    {
      "inputs": [
        {
          "internalType": "address",
          "name": "_collateralToken",
          "type": "address"
        },
        {
          "internalType": "uint256",
          "name": "_UNITAmount",
          "type": "uint256"
        },
        {
          "internalType": "address",
          "name": "_receiver",
          "type": "address"
        }
      ],
      "name": "burnUnit",
      "outputs": [
        {
          "internalType": "bool",
          "name": "",
          "type": "bool"
        }
      ],
      "stateMutability": "nonpayable",
      "type": "function"
    },
    {
      "inputs": [
        {
          "internalType": "address",
          "name": "_collateralToken",
          "type": "address"
        },
        {
          "internalType": "uint256",
          "name": "_tokenAmount",
          "type": "uint256"
        },
        {
          "internalType": "address",
          "name": "_receiver",
          "type": "address"
        }
      ],
      "name": "decreaseCollateral",
      "outputs": [
        {
          "internalType": "bool",
          "name": "",
          "type": "bool"
        }
      ],
      "stateMutability": "nonpayable",
      "type": "function"
    },
    {
      "inputs": [
        {
          "internalType": "address",
          "name": "_collateralToken",
          "type": "address"
        },
        {
          "internalType": "uint256",
          "name": "_tokenAmount",
          "type": "uint256"
        },
        {
          "internalType": "uint256",
          "name": "_UNITAmount",
          "type": "uint256"
        },
        {
          "internalType": "address",
          "name": "_receiver",
          "type": "address"
        }
      ],
      "name": "decreaseCollateralAndBurn",
      "outputs": [
        {
          "internalType": "bool",
          "name": "",
          "type": "bool"
        }
      ],
      "stateMutability": "nonpayable",
      "type": "function"
    },
    {
      "inputs": [
        {
          "internalType": "uint256",
          "name": "_ETHAmount",
          "type": "uint256"
        },
        {
          "internalType": "address",
          "name": "_receiver",
          "type": "address"
        }
      ],
      "name": "decreaseETH",
      "outputs": [
        {
          "internalType": "bool",
          "name": "",
          "type": "bool"
        }
      ],
      "stateMutability": "nonpayable",
      "type": "function"
    },
    {
      "inputs": [
        {
          "internalType": "uint256",
          "name": "_ETHAmount",
          "type": "uint256"
        },
        {
          "internalType": "uint256",
          "name": "_UNITAmount",
          "type": "uint256"
        },
        {
          "internalType": "address",
          "name": "_receiver",
          "type": "address"
        }
      ],
      "name": "decreaseETHAndBurn",
      "outputs": [
        {
          "internalType": "bool",
          "name": "",
          "type": "bool"
        }
      ],
      "stateMutability": "payable",
      "type": "function"
    },
    {
      "inputs": [
        {
          "internalType": "uint256",
          "name": "_ETHAmount",
          "type": "uint256"
        },
        {
          "internalType": "uint256",
          "name": "_UNITAmount",
          "type": "uint256"
        },
        {
          "internalType": "address",
          "name": "_receiver",
          "type": "address"
        }
      ],
      "name": "decreaseETHAndMint",
      "outputs": [
        {
          "internalType": "bool",
          "name": "",
          "type": "bool"
        }
      ],
      "stateMutability": "nonpayable",
      "type": "function"
    },
    {
      "inputs": [
        {
          "internalType": "address",
          "name": "_collateralToken",
          "type": "address"
        },
        {
          "internalType": "uint256",
          "name": "_tokenAmount",
          "type": "uint256"
        },
        {
          "internalType": "address",
          "name": "_receiver",
          "type": "address"
        }
      ],
      "name": "increaseCollateral",
      "outputs": [
        {
          "internalType": "bool",
          "name": "",
          "type": "bool"
        }
      ],
      "stateMutability": "nonpayable",
      "type": "function"
    },
    {
      "inputs": [
        {
          "internalType": "address",
          "name": "_collateralToken",
          "type": "address"
        },
        {
          "internalType": "uint256",
          "name": "_tokenAmount",
          "type": "uint256"
        },
        {
          "internalType": "uint256",
          "name": "_UNITAmount",
          "type": "uint256"
        },
        {
          "internalType": "address",
          "name": "_receiver",
          "type": "address"
        }
      ],
      "name": "increaseCollateralAndMint",
      "outputs": [
        {
          "internalType": "bool",
          "name": "",
          "type": "bool"
        }
      ],
      "stateMutability": "nonpayable",
      "type": "function"
    },
    {
      "inputs": [
        {
          "internalType": "address",
          "name": "_receiver",
          "type": "address"
        }
      ],
      "name": "increaseETH",
      "outputs": [
        {
          "internalType": "bool",
          "name": "",
          "type": "bool"
        }
      ],
      "stateMutability": "payable",
      "type": "function"
    },
    {
      "inputs": [
        {
          "internalType": "uint256",
          "name": "_UNITAmount",
          "type": "uint256"
        },
        {
          "internalType": "address",
          "name": "_receiver",
          "type": "address"
        }
      ],
      "name": "increaseETHAndBurn",
      "outputs": [
        {
          "internalType": "bool",
          "name": "",
          "type": "bool"
        }
      ],
      "stateMutability": "payable",
      "type": "function"
    },
    {
      "inputs": [
        {
          "internalType": "uint256",
          "name": "_UNITAmount",
          "type": "uint256"
        },
        {
          "internalType": "address",
          "name": "_receiver",
          "type": "address"
        }
      ],
      "name": "increaseETHAndMint",
      "outputs": [
        {
          "internalType": "bool",
          "name": "",
          "type": "bool"
        }
      ],
      "stateMutability": "payable",
      "type": "function"
    },
    {
      "inputs": [
        {
          "internalType": "address",
          "name": "_collateralToken",
          "type": "address"
        },
        {
          "internalType": "address",
          "name": "_account",
          "type": "address"
        },
        {
          "internalType": "address",
          "name": "_feeTo",
          "type": "address"
        }
      ],
      "name": "liquidation",
      "outputs": [
        {
          "internalType": "bool",
          "name": "",
          "type": "bool"
        }
      ],
      "stateMutability": "nonpayable",
      "type": "function"
    },
    {
      "inputs": [
        {
          "internalType": "address",
          "name": "_collateralToken",
          "type": "address"
        },
        {
          "internalType": "uint256",
          "name": "_UNITAmount",
          "type": "uint256"
        },
        {
          "internalType": "address",
          "name": "_receiver",
          "type": "address"
        }
      ],
      "name": "mintUnit",
      "outputs": [
        {
          "internalType": "bool",
          "name": "",
          "type": "bool"
        }
      ],
      "stateMutability": "nonpayable",
      "type": "function"
    },
    {
      "stateMutability": "payable",
      "type": "receive"
    }
  ],
  "transactionHash": "0x527cee62603d037f06774cd233ef4edb11cdae4296e6bbca44b5de7cc6c397c8",
  "args": [
    "0xf93b662c2Da7Fc20895dEB62690076A0aA453cC6",
    "0x9c3C9283D3e44854697Cd22D3Faa240Cfb032889",
    "0x4d8Bf5Ce6609e139AFB76b7c5D169f4f85c62280"
  ],
  "numDeployments": 1,
  "solcInputHash": "56c069654fb841afd02cf6fba187d143",
  "bytecode": "0x60806040523480156200001157600080fd5b50604051620039223803806200392283398181016040528101906200003791906200016c565b826000806101000a81548173ffffffffffffffffffffffffffffffffffffffff021916908373ffffffffffffffffffffffffffffffffffffffff16021790555081600160006101000a81548173ffffffffffffffffffffffffffffffffffffffff021916908373ffffffffffffffffffffffffffffffffffffffff16021790555080600260006101000a81548173ffffffffffffffffffffffffffffffffffffffff021916908373ffffffffffffffffffffffffffffffffffffffff160217905550505050620001c8565b600080fd5b600073ffffffffffffffffffffffffffffffffffffffff82169050919050565b6000620001348262000107565b9050919050565b620001468162000127565b81146200015257600080fd5b50565b60008151905062000166816200013b565b92915050565b60008060006060848603121562000188576200018762000102565b5b6000620001988682870162000155565b9350506020620001ab8682870162000155565b9250506040620001be8682870162000155565b9150509250925092565b61374a80620001d86000396000f3fe6080604052600436106100f75760003560e01c80639eef06f91161008a578063cf49efc111610059578063cf49efc1146103e5578063e181f53c14610410578063ee9165351461044d578063fdae7aae1461048a5761015c565b80639eef06f91461031d578063a99446e81461035a578063ad5c46481461038a578063ba48ab04146103b55761015c565b8063411557d1116100c6578063411557d1146102485780635be3772214610273578063786106f3146102b057806389d88e46146102ed5761015c565b8063040650f31461016157806334c3c7bf1461019e5780633c7034a3146101db5780633d75a644146102185761015c565b3661015c57600160009054906101000a900473ffffffffffffffffffffffffffffffffffffffff1673ffffffffffffffffffffffffffffffffffffffff163373ffffffffffffffffffffffffffffffffffffffff161461015a57610159612e0e565b5b005b600080fd5b34801561016d57600080fd5b5061018860048036038101906101839190612ed6565b6104c7565b6040516101959190612f44565b60405180910390f35b3480156101aa57600080fd5b506101c560048036038101906101c09190612f5f565b61091e565b6040516101d29190612f44565b60405180910390f35b3480156101e757600080fd5b5061020260048036038101906101fd9190612fc6565b610ccc565b60405161020f9190612f44565b60405180910390f35b610232600480360381019061022d9190613019565b610e0e565b60405161023f9190612f44565b60405180910390f35b34801561025457600080fd5b5061025d6110d2565b60405161026a9190613055565b60405180910390f35b34801561027f57600080fd5b5061029a60048036038101906102959190612fc6565b6110f6565b6040516102a79190612f44565b60405180910390f35b3480156102bc57600080fd5b506102d760048036038101906102d29190613070565b6112f7565b6040516102e49190612f44565b60405180910390f35b610307600480360381019061030291906130c3565b6115ec565b6040516103149190612f44565b60405180910390f35b34801561032957600080fd5b50610344600480360381019061033f9190612fc6565b611a07565b6040516103519190612f44565b60405180910390f35b610374600480360381019061036f9190612ed6565b611c60565b6040516103819190612f44565b60405180910390f35b34801561039657600080fd5b5061039f612176565b6040516103ac9190613055565b60405180910390f35b6103cf60048036038101906103ca91906130c3565b61219c565b6040516103dc9190612f44565b60405180910390f35b3480156103f157600080fd5b506103fa612676565b6040516104079190613055565b60405180910390f35b34801561041c57600080fd5b5061043760048036038101906104329190612f5f565b61269c565b6040516104449190612f44565b60405180910390f35b34801561045957600080fd5b50610474600480360381019061046f91906130c3565b6129b0565b6040516104819190612f44565b60405180910390f35b34801561049657600080fd5b506104b160048036038101906104ac9190612fc6565b612bcc565b6040516104be9190612f44565b60405180910390f35b6000808411806104d75750600083115b610516576040517f08c379a000000000000000000000000000000000000000000000000000000000815260040161050d90613160565b60405180910390fd5b60008411156107d25760008054906101000a900473ffffffffffffffffffffffffffffffffffffffff1673ffffffffffffffffffffffffffffffffffffffff16632bc2ccdc33600160009054906101000a900473ffffffffffffffffffffffffffffffffffffffff1630886040518563ffffffff1660e01b81526004016105a0949392919061318f565b6020604051808303816000875af11580156105bf573d6000803e3d6000fd5b505050506040513d601f19601f820116820180604052508101906105e39190613200565b506000600160009054906101000a900473ffffffffffffffffffffffffffffffffffffffff1673ffffffffffffffffffffffffffffffffffffffff166370a08231306040518263ffffffff1660e01b81526004016106419190613055565b602060405180830381865afa15801561065e573d6000803e3d6000fd5b505050506040513d601f19601f820116820180604052508101906106829190613242565b9050600081116106c7576040517f08c379a00000000000000000000000000000000000000000000000000000000081526004016106be906132bb565b60405180910390fd5b600160009054906101000a900473ffffffffffffffffffffffffffffffffffffffff1673ffffffffffffffffffffffffffffffffffffffff16632e1a7d4d826040518263ffffffff1660e01b815260040161072291906132db565b600060405180830381600087803b15801561073c57600080fd5b505af1158015610750573d6000803e3d6000fd5b5050505061075e8382612d0e565b8273ffffffffffffffffffffffffffffffffffffffff167ff0d2c90694be5ce3629bebe66dd8bb7c2e31edbd262fb5df1abf8a91a778ef5a600160009054906101000a900473ffffffffffffffffffffffffffffffffffffffff16836040516107c89291906132f6565b60405180910390a2505b60008311156109135760008054906101000a900473ffffffffffffffffffffffffffffffffffffffff1673ffffffffffffffffffffffffffffffffffffffff1663bdb6089733600160009054906101000a900473ffffffffffffffffffffffffffffffffffffffff1686866040518563ffffffff1660e01b815260040161085c949392919061331f565b6020604051808303816000875af115801561087b573d6000803e3d6000fd5b505050506040513d601f19601f8201168201806040525081019061089f9190613200565b508173ffffffffffffffffffffffffffffffffffffffff167fd363b008fd0c5aab65035947b4e518d81c452d47ff7096af4a9d21db2067b274600160009054906101000a900473ffffffffffffffffffffffffffffffffffffffff168560405161090a9291906132f6565b60405180910390a25b600190509392505050565b60008084118061092e5750600083115b61096d576040517f08c379a000000000000000000000000000000000000000000000000000000000815260040161096490613160565b60405180910390fd5b6000841115610bc357838573ffffffffffffffffffffffffffffffffffffffff166370a08231336040518263ffffffff1660e01b81526004016109b09190613055565b602060405180830381865afa1580156109cd573d6000803e3d6000fd5b505050506040513d601f19601f820116820180604052508101906109f19190613242565b1015610a32576040517f08c379a0000000000000000000000000000000000000000000000000000000008152600401610a29906133b0565b60405180910390fd5b8473ffffffffffffffffffffffffffffffffffffffff166323b872dd3360008054906101000a900473ffffffffffffffffffffffffffffffffffffffff16876040518463ffffffff1660e01b8152600401610a8f939291906133d0565b6020604051808303816000875af1158015610aae573d6000803e3d6000fd5b505050506040513d601f19601f82011682018060405250810190610ad29190613200565b5060008054906101000a900473ffffffffffffffffffffffffffffffffffffffff1673ffffffffffffffffffffffffffffffffffffffff16634a19129386846040518363ffffffff1660e01b8152600401610b2e929190613407565b6020604051808303816000875af1158015610b4d573d6000803e3d6000fd5b505050506040513d601f19601f82011682018060405250810190610b719190613200565b508173ffffffffffffffffffffffffffffffffffffffff167fae459568773d57b154856c04238493d10ad7e36065595147cbff96c85fbd56158686604051610bba9291906132f6565b60405180910390a25b6000831115610cc05760008054906101000a900473ffffffffffffffffffffffffffffffffffffffff1673ffffffffffffffffffffffffffffffffffffffff1663bdb60897338786866040518563ffffffff1660e01b8152600401610c2b949392919061331f565b6020604051808303816000875af1158015610c4a573d6000803e3d6000fd5b505050506040513d601f19601f82011682018060405250810190610c6e9190613200565b508173ffffffffffffffffffffffffffffffffffffffff167fd363b008fd0c5aab65035947b4e518d81c452d47ff7096af4a9d21db2067b2748685604051610cb79291906132f6565b60405180910390a25b60019050949350505050565b6000808311610d10576040517f08c379a0000000000000000000000000000000000000000000000000000000008152600401610d0790613160565b60405180910390fd5b60008054906101000a900473ffffffffffffffffffffffffffffffffffffffff1673ffffffffffffffffffffffffffffffffffffffff16632bc2ccdc338685876040518563ffffffff1660e01b8152600401610d6f949392919061318f565b6020604051808303816000875af1158015610d8e573d6000803e3d6000fd5b505050506040513d601f19601f82011682018060405250810190610db29190613200565b508173ffffffffffffffffffffffffffffffffffffffff167ff0d2c90694be5ce3629bebe66dd8bb7c2e31edbd262fb5df1abf8a91a778ef5a8585604051610dfb9291906132f6565b60405180910390a2600190509392505050565b6000803411610e52576040517f08c379a0000000000000000000000000000000000000000000000000000000008152600401610e4990613160565b60405180910390fd5b600160009054906101000a900473ffffffffffffffffffffffffffffffffffffffff1673ffffffffffffffffffffffffffffffffffffffff1663d0e30db0346040518263ffffffff1660e01b81526004016000604051808303818588803b158015610ebc57600080fd5b505af1158015610ed0573d6000803e3d6000fd5b5050505050600160009054906101000a900473ffffffffffffffffffffffffffffffffffffffff1673ffffffffffffffffffffffffffffffffffffffff1663a9059cbb60008054906101000a900473ffffffffffffffffffffffffffffffffffffffff16346040518363ffffffff1660e01b8152600401610f529291906132f6565b6020604051808303816000875af1158015610f71573d6000803e3d6000fd5b505050506040513d601f19601f82011682018060405250810190610f959190613200565b5060008054906101000a900473ffffffffffffffffffffffffffffffffffffffff1673ffffffffffffffffffffffffffffffffffffffff16634a191293600160009054906101000a900473ffffffffffffffffffffffffffffffffffffffff16846040518363ffffffff1660e01b8152600401611013929190613407565b6020604051808303816000875af1158015611032573d6000803e3d6000fd5b505050506040513d601f19601f820116820180604052508101906110569190613200565b508173ffffffffffffffffffffffffffffffffffffffff167fae459568773d57b154856c04238493d10ad7e36065595147cbff96c85fbd5615600160009054906101000a900473ffffffffffffffffffffffffffffffffffffffff16346040516110c19291906132f6565b60405180910390a260019050919050565b60008054906101000a900473ffffffffffffffffffffffffffffffffffffffff1681565b600080831161113a576040517f08c379a000000000000000000000000000000000000000000000000000000000815260040161113190613160565b60405180910390fd5b600260009054906101000a900473ffffffffffffffffffffffffffffffffffffffff1673ffffffffffffffffffffffffffffffffffffffff166323b872dd3360008054906101000a900473ffffffffffffffffffffffffffffffffffffffff16866040518463ffffffff1660e01b81526004016111b9939291906133d0565b6020604051808303816000875af11580156111d8573d6000803e3d6000fd5b505050506040513d601f19601f820116820180604052508101906111fc9190613200565b5060008054906101000a900473ffffffffffffffffffffffffffffffffffffffff1673ffffffffffffffffffffffffffffffffffffffff166329c8bbe585846040518363ffffffff1660e01b8152600401611258929190613407565b6020604051808303816000875af1158015611277573d6000803e3d6000fd5b505050506040513d601f19601f8201168201806040525081019061129b9190613200565b508173ffffffffffffffffffffffffffffffffffffffff167ffb6092b536488fdd210bfee27cae6cc125aca3bf3f37c2c7ddbeee8dfda83c0d85856040516112e49291906132f6565b60405180910390a2600190509392505050565b60008060008054906101000a900473ffffffffffffffffffffffffffffffffffffffff1673ffffffffffffffffffffffffffffffffffffffff166322a65a3985876040518363ffffffff1660e01b8152600401611355929190613407565b6040805180830381865afa158015611371573d6000803e3d6000fd5b505050506040513d601f19601f820116820180604052508101906113959190613430565b9150506000600260009054906101000a900473ffffffffffffffffffffffffffffffffffffffff1673ffffffffffffffffffffffffffffffffffffffff166370a08231336040518263ffffffff1660e01b81526004016113f59190613055565b602060405180830381865afa158015611412573d6000803e3d6000fd5b505050506040513d601f19601f820116820180604052508101906114369190613242565b90508181101561147b576040517f08c379a0000000000000000000000000000000000000000000000000000000008152600401611472906134e2565b60405180910390fd5b600260009054906101000a900473ffffffffffffffffffffffffffffffffffffffff1673ffffffffffffffffffffffffffffffffffffffff166323b872dd3360008054906101000a900473ffffffffffffffffffffffffffffffffffffffff16856040518463ffffffff1660e01b81526004016114fa939291906133d0565b6020604051808303816000875af1158015611519573d6000803e3d6000fd5b505050506040513d601f19601f8201168201806040525081019061153d9190613200565b5060008054906101000a900473ffffffffffffffffffffffffffffffffffffffff1673ffffffffffffffffffffffffffffffffffffffff1663786106f38787876040518463ffffffff1660e01b815260040161159b93929190613502565b6020604051808303816000875af11580156115ba573d6000803e3d6000fd5b505050506040513d601f19601f820116820180604052508101906115de9190613200565b506001925050509392505050565b6000803411806115fc5750600083115b61163b576040517f08c379a000000000000000000000000000000000000000000000000000000000815260040161163290613160565b60405180910390fd5b60003411156118bc57600160009054906101000a900473ffffffffffffffffffffffffffffffffffffffff1673ffffffffffffffffffffffffffffffffffffffff1663d0e30db0346040518263ffffffff1660e01b81526004016000604051808303818588803b1580156116ae57600080fd5b505af11580156116c2573d6000803e3d6000fd5b5050505050600160009054906101000a900473ffffffffffffffffffffffffffffffffffffffff1673ffffffffffffffffffffffffffffffffffffffff1663a9059cbb60008054906101000a900473ffffffffffffffffffffffffffffffffffffffff16346040518363ffffffff1660e01b81526004016117449291906132f6565b6020604051808303816000875af1158015611763573d6000803e3d6000fd5b505050506040513d601f19601f820116820180604052508101906117879190613200565b5060008054906101000a900473ffffffffffffffffffffffffffffffffffffffff1673ffffffffffffffffffffffffffffffffffffffff16634a191293600160009054906101000a900473ffffffffffffffffffffffffffffffffffffffff16846040518363ffffffff1660e01b8152600401611805929190613407565b6020604051808303816000875af1158015611824573d6000803e3d6000fd5b505050506040513d601f19601f820116820180604052508101906118489190613200565b508173ffffffffffffffffffffffffffffffffffffffff167fae459568773d57b154856c04238493d10ad7e36065595147cbff96c85fbd5615600160009054906101000a900473ffffffffffffffffffffffffffffffffffffffff16346040516118b39291906132f6565b60405180910390a25b60008311156119fd5760008054906101000a900473ffffffffffffffffffffffffffffffffffffffff1673ffffffffffffffffffffffffffffffffffffffff1663bdb6089733600160009054906101000a900473ffffffffffffffffffffffffffffffffffffffff1686866040518563ffffffff1660e01b8152600401611946949392919061331f565b6020604051808303816000875af1158015611965573d6000803e3d6000fd5b505050506040513d601f19601f820116820180604052508101906119899190613200565b508173ffffffffffffffffffffffffffffffffffffffff167fd363b008fd0c5aab65035947b4e518d81c452d47ff7096af4a9d21db2067b274600160009054906101000a900473ffffffffffffffffffffffffffffffffffffffff16856040516119f49291906132f6565b60405180910390a25b6001905092915050565b6000828473ffffffffffffffffffffffffffffffffffffffff166370a08231336040518263ffffffff1660e01b8152600401611a439190613055565b602060405180830381865afa158015611a60573d6000803e3d6000fd5b505050506040513d601f19601f82011682018060405250810190611a849190613242565b1015611ac5576040517f08c379a0000000000000000000000000000000000000000000000000000000008152600401611abc906135ab565b60405180910390fd5b8373ffffffffffffffffffffffffffffffffffffffff166323b872dd3360008054906101000a900473ffffffffffffffffffffffffffffffffffffffff16866040518463ffffffff1660e01b8152600401611b22939291906133d0565b6020604051808303816000875af1158015611b41573d6000803e3d6000fd5b505050506040513d601f19601f82011682018060405250810190611b659190613200565b5060008054906101000a900473ffffffffffffffffffffffffffffffffffffffff1673ffffffffffffffffffffffffffffffffffffffff16634a19129385846040518363ffffffff1660e01b8152600401611bc1929190613407565b6020604051808303816000875af1158015611be0573d6000803e3d6000fd5b505050506040513d601f19601f82011682018060405250810190611c049190613200565b508173ffffffffffffffffffffffffffffffffffffffff167fae459568773d57b154856c04238493d10ad7e36065595147cbff96c85fbd56158585604051611c4d9291906132f6565b60405180910390a2600190509392505050565b600080841180611c705750600083115b611caf576040517f08c379a0000000000000000000000000000000000000000000000000000000008152600401611ca690613160565b60405180910390fd5b6000831115611eaf57600260009054906101000a900473ffffffffffffffffffffffffffffffffffffffff1673ffffffffffffffffffffffffffffffffffffffff166323b872dd3360008054906101000a900473ffffffffffffffffffffffffffffffffffffffff16866040518463ffffffff1660e01b8152600401611d37939291906133d0565b6020604051808303816000875af1158015611d56573d6000803e3d6000fd5b505050506040513d601f19601f82011682018060405250810190611d7a9190613200565b5060008054906101000a900473ffffffffffffffffffffffffffffffffffffffff1673ffffffffffffffffffffffffffffffffffffffff166329c8bbe5600160009054906101000a900473ffffffffffffffffffffffffffffffffffffffff16846040518363ffffffff1660e01b8152600401611df8929190613407565b6020604051808303816000875af1158015611e17573d6000803e3d6000fd5b505050506040513d601f19601f82011682018060405250810190611e3b9190613200565b508173ffffffffffffffffffffffffffffffffffffffff167ffb6092b536488fdd210bfee27cae6cc125aca3bf3f37c2c7ddbeee8dfda83c0d600160009054906101000a900473ffffffffffffffffffffffffffffffffffffffff1685604051611ea69291906132f6565b60405180910390a25b600084111561216b5760008054906101000a900473ffffffffffffffffffffffffffffffffffffffff1673ffffffffffffffffffffffffffffffffffffffff16632bc2ccdc33600160009054906101000a900473ffffffffffffffffffffffffffffffffffffffff1630886040518563ffffffff1660e01b8152600401611f39949392919061318f565b6020604051808303816000875af1158015611f58573d6000803e3d6000fd5b505050506040513d601f19601f82011682018060405250810190611f7c9190613200565b506000600160009054906101000a900473ffffffffffffffffffffffffffffffffffffffff1673ffffffffffffffffffffffffffffffffffffffff166370a08231306040518263ffffffff1660e01b8152600401611fda9190613055565b602060405180830381865afa158015611ff7573d6000803e3d6000fd5b505050506040513d601f19601f8201168201806040525081019061201b9190613242565b905060008111612060576040517f08c379a0000000000000000000000000000000000000000000000000000000008152600401612057906132bb565b60405180910390fd5b600160009054906101000a900473ffffffffffffffffffffffffffffffffffffffff1673ffffffffffffffffffffffffffffffffffffffff16632e1a7d4d826040518263ffffffff1660e01b81526004016120bb91906132db565b600060405180830381600087803b1580156120d557600080fd5b505af11580156120e9573d6000803e3d6000fd5b505050506120f78382612d0e565b8273ffffffffffffffffffffffffffffffffffffffff167ff0d2c90694be5ce3629bebe66dd8bb7c2e31edbd262fb5df1abf8a91a778ef5a600160009054906101000a900473ffffffffffffffffffffffffffffffffffffffff16836040516121619291906132f6565b60405180910390a2505b600190509392505050565b600160009054906101000a900473ffffffffffffffffffffffffffffffffffffffff1681565b6000803411806121ac5750600083115b6121eb576040517f08c379a00000000000000000000000000000000000000000000000000000000081526004016121e290613160565b60405180910390fd5b600034111561246c57600160009054906101000a900473ffffffffffffffffffffffffffffffffffffffff1673ffffffffffffffffffffffffffffffffffffffff1663d0e30db0346040518263ffffffff1660e01b81526004016000604051808303818588803b15801561225e57600080fd5b505af1158015612272573d6000803e3d6000fd5b5050505050600160009054906101000a900473ffffffffffffffffffffffffffffffffffffffff1673ffffffffffffffffffffffffffffffffffffffff1663a9059cbb60008054906101000a900473ffffffffffffffffffffffffffffffffffffffff16346040518363ffffffff1660e01b81526004016122f49291906132f6565b6020604051808303816000875af1158015612313573d6000803e3d6000fd5b505050506040513d601f19601f820116820180604052508101906123379190613200565b5060008054906101000a900473ffffffffffffffffffffffffffffffffffffffff1673ffffffffffffffffffffffffffffffffffffffff16634a191293600160009054906101000a900473ffffffffffffffffffffffffffffffffffffffff16846040518363ffffffff1660e01b81526004016123b5929190613407565b6020604051808303816000875af11580156123d4573d6000803e3d6000fd5b505050506040513d601f19601f820116820180604052508101906123f89190613200565b508173ffffffffffffffffffffffffffffffffffffffff167fae459568773d57b154856c04238493d10ad7e36065595147cbff96c85fbd5615600160009054906101000a900473ffffffffffffffffffffffffffffffffffffffff16346040516124639291906132f6565b60405180910390a25b600083111561266c57600260009054906101000a900473ffffffffffffffffffffffffffffffffffffffff1673ffffffffffffffffffffffffffffffffffffffff166323b872dd3360008054906101000a900473ffffffffffffffffffffffffffffffffffffffff16866040518463ffffffff1660e01b81526004016124f4939291906133d0565b6020604051808303816000875af1158015612513573d6000803e3d6000fd5b505050506040513d601f19601f820116820180604052508101906125379190613200565b5060008054906101000a900473ffffffffffffffffffffffffffffffffffffffff1673ffffffffffffffffffffffffffffffffffffffff166329c8bbe5600160009054906101000a900473ffffffffffffffffffffffffffffffffffffffff16846040518363ffffffff1660e01b81526004016125b5929190613407565b6020604051808303816000875af11580156125d4573d6000803e3d6000fd5b505050506040513d601f19601f820116820180604052508101906125f89190613200565b508173ffffffffffffffffffffffffffffffffffffffff167ffb6092b536488fdd210bfee27cae6cc125aca3bf3f37c2c7ddbeee8dfda83c0d600160009054906101000a900473ffffffffffffffffffffffffffffffffffffffff16856040516126639291906132f6565b60405180910390a25b6001905092915050565b600260009054906101000a900473ffffffffffffffffffffffffffffffffffffffff1681565b6000808411806126ac5750600083115b6126eb576040517f08c379a00000000000000000000000000000000000000000000000000000000081526004016126e290613160565b60405180910390fd5b60008311156128ab5760008054906101000a900473ffffffffffffffffffffffffffffffffffffffff1673ffffffffffffffffffffffffffffffffffffffff16632bc2ccdc338785886040518563ffffffff1660e01b8152600401612753949392919061318f565b6020604051808303816000875af1158015612772573d6000803e3d6000fd5b505050506040513d601f19601f820116820180604052508101906127969190613200565b50600260009054906101000a900473ffffffffffffffffffffffffffffffffffffffff1673ffffffffffffffffffffffffffffffffffffffff166323b872dd3360008054906101000a900473ffffffffffffffffffffffffffffffffffffffff16866040518463ffffffff1660e01b8152600401612816939291906133d0565b6020604051808303816000875af1158015612835573d6000803e3d6000fd5b505050506040513d601f19601f820116820180604052508101906128599190613200565b508173ffffffffffffffffffffffffffffffffffffffff167ff0d2c90694be5ce3629bebe66dd8bb7c2e31edbd262fb5df1abf8a91a778ef5a86866040516128a29291906132f6565b60405180910390a25b60008411156129a45760008054906101000a900473ffffffffffffffffffffffffffffffffffffffff1673ffffffffffffffffffffffffffffffffffffffff166329c8bbe586846040518363ffffffff1660e01b815260040161290f929190613407565b6020604051808303816000875af115801561292e573d6000803e3d6000fd5b505050506040513d601f19601f820116820180604052508101906129529190613200565b508173ffffffffffffffffffffffffffffffffffffffff167ffb6092b536488fdd210bfee27cae6cc125aca3bf3f37c2c7ddbeee8dfda83c0d868560405161299b9291906132f6565b60405180910390a25b60019050949350505050565b60008083116129f4576040517f08c379a00000000000000000000000000000000000000000000000000000000081526004016129eb90613160565b60405180910390fd5b60008054906101000a900473ffffffffffffffffffffffffffffffffffffffff1673ffffffffffffffffffffffffffffffffffffffff16632bc2ccdc33600160009054906101000a900473ffffffffffffffffffffffffffffffffffffffff1630876040518563ffffffff1660e01b8152600401612a75949392919061318f565b6020604051808303816000875af1158015612a94573d6000803e3d6000fd5b505050506040513d601f19601f82011682018060405250810190612ab89190613200565b50600160009054906101000a900473ffffffffffffffffffffffffffffffffffffffff1673ffffffffffffffffffffffffffffffffffffffff16632e1a7d4d846040518263ffffffff1660e01b8152600401612b1491906132db565b600060405180830381600087803b158015612b2e57600080fd5b505af1158015612b42573d6000803e3d6000fd5b50505050612b508284612d0e565b8173ffffffffffffffffffffffffffffffffffffffff167ff0d2c90694be5ce3629bebe66dd8bb7c2e31edbd262fb5df1abf8a91a778ef5a600160009054906101000a900473ffffffffffffffffffffffffffffffffffffffff1685604051612bba9291906132f6565b60405180910390a26001905092915050565b6000808311612c10576040517f08c379a0000000000000000000000000000000000000000000000000000000008152600401612c0790613160565b60405180910390fd5b60008054906101000a900473ffffffffffffffffffffffffffffffffffffffff1673ffffffffffffffffffffffffffffffffffffffff1663bdb60897338686866040518563ffffffff1660e01b8152600401612c6f949392919061331f565b6020604051808303816000875af1158015612c8e573d6000803e3d6000fd5b505050506040513d601f19601f82011682018060405250810190612cb29190613200565b508173ffffffffffffffffffffffffffffffffffffffff167fd363b008fd0c5aab65035947b4e518d81c452d47ff7096af4a9d21db2067b2748585604051612cfb9291906132f6565b60405180910390a2600190509392505050565b60008273ffffffffffffffffffffffffffffffffffffffff1682600067ffffffffffffffff811115612d4357612d426135cb565b5b6040519080825280601f01601f191660200182016040528015612d755781602001600182028036833780820191505090505b50604051612d83919061366b565b60006040518083038185875af1925050503d8060008114612dc0576040519150601f19603f3d011682016040523d82523d6000602084013e612dc5565b606091505b5050905080612e09576040517f08c379a0000000000000000000000000000000000000000000000000000000008152600401612e00906136f4565b60405180910390fd5b505050565b7f4e487b7100000000000000000000000000000000000000000000000000000000600052600160045260246000fd5b600080fd5b6000819050919050565b612e5581612e42565b8114612e6057600080fd5b50565b600081359050612e7281612e4c565b92915050565b600073ffffffffffffffffffffffffffffffffffffffff82169050919050565b6000612ea382612e78565b9050919050565b612eb381612e98565b8114612ebe57600080fd5b50565b600081359050612ed081612eaa565b92915050565b600080600060608486031215612eef57612eee612e3d565b5b6000612efd86828701612e63565b9350506020612f0e86828701612e63565b9250506040612f1f86828701612ec1565b9150509250925092565b60008115159050919050565b612f3e81612f29565b82525050565b6000602082019050612f596000830184612f35565b92915050565b60008060008060808587031215612f7957612f78612e3d565b5b6000612f8787828801612ec1565b9450506020612f9887828801612e63565b9350506040612fa987828801612e63565b9250506060612fba87828801612ec1565b91505092959194509250565b600080600060608486031215612fdf57612fde612e3d565b5b6000612fed86828701612ec1565b9350506020612ffe86828701612e63565b925050604061300f86828701612ec1565b9150509250925092565b60006020828403121561302f5761302e612e3d565b5b600061303d84828501612ec1565b91505092915050565b61304f81612e98565b82525050565b600060208201905061306a6000830184613046565b92915050565b60008060006060848603121561308957613088612e3d565b5b600061309786828701612ec1565b93505060206130a886828701612ec1565b92505060406130b986828701612ec1565b9150509250925092565b600080604083850312156130da576130d9612e3d565b5b60006130e885828601612e63565b92505060206130f985828601612ec1565b9150509250929050565b600082825260208201905092915050565b7f55696e74526f757465723a20616d6f756e742063616e6e6f7420626520300000600082015250565b600061314a601e83613103565b915061315582613114565b602082019050919050565b600060208201905081810360008301526131798161313d565b9050919050565b61318981612e42565b82525050565b60006080820190506131a46000830187613046565b6131b16020830186613046565b6131be6040830185613046565b6131cb6060830184613180565b95945050505050565b6131dd81612f29565b81146131e857600080fd5b50565b6000815190506131fa816131d4565b92915050565b60006020828403121561321657613215612e3d565b5b6000613224848285016131eb565b91505092915050565b60008151905061323c81612e4c565b92915050565b60006020828403121561325857613257612e3d565b5b60006132668482850161322d565b91505092915050565b7f55696e74526f757465723a2057455448206e6f7420616c6c6f77203000000000600082015250565b60006132a5601c83613103565b91506132b08261326f565b602082019050919050565b600060208201905081810360008301526132d481613298565b9050919050565b60006020820190506132f06000830184613180565b92915050565b600060408201905061330b6000830185613046565b6133186020830184613180565b9392505050565b60006080820190506133346000830187613046565b6133416020830186613046565b61334e6040830185613180565b61335b6060830184613046565b95945050505050565b7f55696e74526f757465723a20696e000000000000000000000000000000000000600082015250565b600061339a600e83613103565b91506133a582613364565b602082019050919050565b600060208201905081810360008301526133c98161338d565b9050919050565b60006060820190506133e56000830186613046565b6133f26020830185613046565b6133ff6040830184613180565b949350505050565b600060408201905061341c6000830185613046565b6134296020830184613046565b9392505050565b6000806040838503121561344757613446612e3d565b5b60006134558582860161322d565b92505060206134668582860161322d565b9150509250929050565b7f55696e74526f757465723a20696e73756666696369656e742054494e5520746f60008201527f6b656e0000000000000000000000000000000000000000000000000000000000602082015250565b60006134cc602383613103565b91506134d782613470565b604082019050919050565b600060208201905081810360008301526134fb816134bf565b9050919050565b60006060820190506135176000830186613046565b6135246020830185613046565b6135316040830184613046565b949350505050565b7f55696e74526f757465723a20696e73756666696369656e7420746f6b656e416d60008201527f6f756e7400000000000000000000000000000000000000000000000000000000602082015250565b6000613595602483613103565b91506135a082613539565b604082019050919050565b600060208201905081810360008301526135c481613588565b9050919050565b7f4e487b7100000000000000000000000000000000000000000000000000000000600052604160045260246000fd5b600081519050919050565b600081905092915050565b60005b8381101561362e578082015181840152602081019050613613565b60008484015250505050565b6000613645826135fa565b61364f8185613605565b935061365f818560208601613610565b80840191505092915050565b6000613677828461363a565b915081905092915050565b7f55696e74526f757465723a3a736166655472616e736665724554483a2045544860008201527f207472616e73666572206661696c656400000000000000000000000000000000602082015250565b60006136de603083613103565b91506136e982613682565b604082019050919050565b6000602082019050818103600083015261370d816136d1565b905091905056fea264697066735822122049103fbb4755bd1f19088f8ac7ffb8b10d926aff976639281da33d4f4a582e4064736f6c63430008110033",
  "devdoc": {
    "kind": "dev",
    "methods": {},
    "version": 1
  },
  "userdoc": {
    "kind": "user",
    "methods": {},
    "version": 1
  },
  "storageLayout": {
    "storage": [
      {
        "astId": 2813,
        "contract": "contracts/peripherals/RouterV1.sol:RouterV1",
        "label": "VAULT",
        "offset": 0,
        "slot": "0",
        "type": "t_address"
      },
      {
        "astId": 2815,
        "contract": "contracts/peripherals/RouterV1.sol:RouterV1",
        "label": "WETH",
        "offset": 0,
        "slot": "1",
        "type": "t_address"
      },
      {
        "astId": 2817,
        "contract": "contracts/peripherals/RouterV1.sol:RouterV1",
        "label": "TINU",
        "offset": 0,
        "slot": "2",
        "type": "t_address"
      }
    ],
    "types": {
      "t_address": {
        "encoding": "inplace",
        "label": "address",
        "numberOfBytes": "20"
      }
    }
  }
}